{"abi":[{"type":"constructor","inputs":[{"name":"_hook","type":"address","internalType":"contract IndemnifiHook"},{"name":"_vault","type":"address","internalType":"contract InsuranceVault"},{"name":"_token","type":"address","internalType":"contract IERC20"},{"name":"initialOwner","type":"address","internalType":"address"}],"stateMutability":"nonpayable"},{"type":"function","name":"PRICE_2000","inputs":[],"outputs":[{"name":"","type":"uint160","internalType":"uint160"}],"stateMutability":"view"},{"type":"function","name":"PRICE_2080","inputs":[],"outputs":[{"name":"","type":"uint160","internalType":"uint160"}],"stateMutability":"view"},{"type":"function","name":"PRICE_2800","inputs":[],"outputs":[{"name":"","type":"uint160","internalType":"uint160"}],"stateMutability":"view"},{"type":"function","name":"PRICE_4000","inputs":[],"outputs":[{"name":"","type":"uint160","internalType":"uint160"}],"stateMutability":"view"},{"type":"function","name":"getLastResult","inputs":[],"outputs":[{"name":"","type":"tuple","internalType":"struct DemoScenarioRunner.RunResult","components":[{"name":"scenario","type":"uint8","internalType":"enum DemoScenarioRunner.Scenario"},{"name":"aliceIL","type":"uint256","internalType":"uint256"},{"name":"aliceFinalLoss","type":"uint256","internalType":"uint256"},{"name":"bobIL","type":"uint256","internalType":"uint256"},{"name":"bobPayout","type":"uint256","internalType":"uint256"},{"name":"bobPremium","type":"uint256","internalType":"uint256"},{"name":"bobFinalLoss","type":"uint256","internalType":"uint256"},{"name":"bobAdvantage","type":"uint256","internalType":"uint256"},{"name":"vaultBalance","type":"uint256","internalType":"uint256"},{"name":"vaultSolvencyBps","type":"uint256","internalType":"uint256"},{"name":"coveragePaused","type":"bool","internalType":"bool"}]}],"stateMutability":"view"},{"type":"function","name":"getScenarioConfig","inputs":[{"name":"s","type":"uint8","internalType":"enum DemoScenarioRunner.Scenario"}],"outputs":[{"name":"cfg","type":"tuple","internalType":"struct DemoScenarioRunner.ScenarioConfig","components":[{"name":"entryPrice","type":"uint160","internalType":"uint160"},{"name":"exitPrice","type":"uint160","internalType":"uint160"},{"name":"notional","type":"uint256","internalType":"uint256"},{"name":"thresholdBps","type":"uint256","internalType":"uint256"},{"name":"maxPayout","type":"uint256","internalType":"uint256"},{"name":"seedYield","type":"uint256","internalType":"uint256"}]}],"stateMutability":"pure"},{"type":"function","name":"hook","inputs":[],"outputs":[{"name":"","type":"address","internalType":"contract IndemnifiHook"}],"stateMutability":"view"},{"type":"function","name":"lastResult","inputs":[],"outputs":[{"name":"scenario","type":"uint8","internalType":"enum DemoScenarioRunner.Scenario"},{"name":"aliceIL","type":"uint256","internalType":"uint256"},{"name":"aliceFinalLoss","type":"uint256","internalType":"uint256"},{"name":"bobIL","type":"uint256","internalType":"uint256"},{"name":"bobPayout","type":"uint256","internalType":"uint256"},{"name":"bobPremium","type":"uint256","internalType":"uint256"},{"name":"bobFinalLoss","type":"uint256","internalType":"uint256"},{"name":"bobAdvantage","type":"uint256","internalType":"uint256"},{"name":"vaultBalance","type":"uint256","internalType":"uint256"},{"name":"vaultSolvencyBps","type":"uint256","internalType":"uint256"},{"name":"coveragePaused","type":"bool","internalType":"bool"}],"stateMutability":"view"},{"type":"function","name":"owner","inputs":[],"outputs":[{"name":"","type":"address","internalType":"address"}],"stateMutability":"view"},{"type":"function","name":"ran","inputs":[],"outputs":[{"name":"","type":"bool","internalType":"bool"}],"stateMutability":"view"},{"type":"function","name":"renounceOwnership","inputs":[],"outputs":[],"stateMutability":"nonpayable"},{"type":"function","name":"runScenario","inputs":[{"name":"s","type":"uint8","internalType":"enum DemoScenarioRunner.Scenario"}],"outputs":[],"stateMutability":"nonpayable"},{"type":"function","name":"token","inputs":[],"outputs":[{"name":"","type":"address","internalType":"contract IERC20"}],"stateMutability":"view"},{"type":"function","name":"transferOwnership","inputs":[{"name":"newOwner","type":"address","internalType":"address"}],"outputs":[],"stateMutability":"nonpayable"},{"type":"function","name":"vault","inputs":[],"outputs":[{"name":"","type":"address","internalType":"contract InsuranceVault"}],"stateMutability":"view"},{"type":"event","name":"OwnershipTransferred","inputs":[{"name":"previousOwner","type":"address","indexed":true,"internalType":"address"},{"name":"newOwner","type":"address","indexed":true,"internalType":"address"}],"anonymous":false},{"type":"event","name":"ScenarioRan","inputs":[{"name":"scenario","type":"uint8","indexed":true,"internalType":"enum DemoScenarioRunner.Scenario"},{"name":"result","type":"tuple","indexed":false,"internalType":"struct DemoScenarioRunner.RunResult","components":[{"name":"scenario","type":"uint8","internalType":"enum DemoScenarioRunner.Scenario"},{"name":"aliceIL","type":"uint256","internalType":"uint256"},{"name":"aliceFinalLoss","type":"uint256","internalType":"uint256"},{"name":"bobIL","type":"uint256","internalType":"uint256"},{"name":"bobPayout","type":"uint256","internalType":"uint256"},{"name":"bobPremium","type":"uint256","internalType":"uint256"},{"name":"bobFinalLoss","type":"uint256","internalType":"uint256"},{"name":"bobAdvantage","type":"uint256","internalType":"uint256"},{"name":"vaultBalance","type":"uint256","internalType":"uint256"},{"name":"vaultSolvencyBps","type":"uint256","internalType":"uint256"},{"name":"coveragePaused","type":"bool","internalType":"bool"}]}],"anonymous":false},{"type":"event","name":"StepComplete","inputs":[{"name":"step","type":"uint8","indexed":false,"internalType":"uint8"},{"name":"description","type":"string","indexed":false,"internalType":"string"}],"anonymous":false},{"type":"error","name":"OwnableInvalidOwner","inputs":[{"name":"owner","type":"address","internalType":"address"}]},{"type":"error","name":"OwnableUnauthorizedAccount","inputs":[{"name":"account","type":"address","internalType":"address"}]},{"type":"error","name":"SafeERC20FailedOperation","inputs":[{"name":"token","type":"address","internalType":"address"}]}],"bytecode":{"object":"0x60e060405234801561000f575f80fd5b5060405161168738038061168783398101604081905261002e916100ea565b806001600160a01b03811661005c57604051631e4fbdf760e01b81525f600482015260240160405180910390fd5b61006581610084565b50506001600160a01b0392831660805290821660a0521660c052610146565b5f80546001600160a01b038381166001600160a01b0319831681178455604051919092169283917f8be0079c531659141344cd1fd0a4f28419497f9722a3daafe3b4186f6b6457e09190a35050565b6001600160a01b03811681146100e7575f80fd5b50565b5f805f80608085870312156100fd575f80fd5b8451610108816100d3565b6020860151909450610119816100d3565b604086015190935061012a816100d3565b606086015190925061013b816100d3565b939692955090935050565b60805160a05160c0516114df6101a85f395f81816102d50152818161044701526104ad01525f81816102ae01528181610474015281816104ea015281816105ba015281816107f9015281816108d8015261095b01525f6101a001526114df5ff3fe608060405234801561000f575f80fd5b50600436106100f0575f3560e01c806391e131e611610093578063b8e1aca311610063578063b8e1aca314610284578063f2fde38b14610296578063fbfa77cf146102a9578063fc0c546a146102d0575f80fd5b806391e131e6146101fc57806392093dd61461020e578063abcc11d814610223578063b400e20214610272575f80fd5b8063715018a6116100ce578063715018a6146101935780637f5a7c7b1461019b57806389d2e929146101da5780638da5cb5b146101ec575f80fd5b80630472f549146100f45780630ccfac83146101165780631a59920b1461012b575b5f80fd5b600c546101019060ff1681565b60405190151581526020015b60405180910390f35b610129610124366004611210565b6102f7565b005b61013e610139366004611210565b610c15565b60405161010d919081516001600160a01b0390811682526020808401519091169082015260408083015190820152606080830151908201526080808301519082015260a0918201519181019190915260c00190565b610129610d11565b6101c27f000000000000000000000000000000000000000000000000000000000000000081565b6040516001600160a01b03909116815260200161010d565b6101c26a0312ebd2ab988f6000000081565b5f546001600160a01b03166101c2565b6101c26a02ee4cc6d5cdcf0000000081565b610216610d24565b60405161010d9190611269565b600154600254600354600454600554600654600754600854600954600a54600b5461025b9a60ff9081169a999897969594939291168b565b60405161010d9b9a999897969594939291906112f6565b6101c26a0425159526f86f4000000081565b6101c26a05dc998dab9b9e0000000081565b6101296102a4366004611354565b610e25565b6101c27f000000000000000000000000000000000000000000000000000000000000000081565b6101c27f000000000000000000000000000000000000000000000000000000000000000081565b6102ff610e67565b5f61030982610c15565b604080516001815260208101829052600f818301526e115b9d1c9e481c1c9a58d9481cd95d608a1b606082015290519192505f8051602061148a833981519152919081900360800190a1604080516002815260208101829052601e818301527f416c696365206164647320756e696e7375726564206c69717569646974790000606082015290515f8051602061148a8339815191529181900360800190a1604080516003815260208101829052601a818301527f426f62206164647320696e7375726564206c6971756964697479000000000000606082015290515f8051602061148a8339815191529181900360800190a15f609690505f61040f836040015183610e93565b90505f610426826901ccc9324511e450000061138e565b905061046f33308660a001518461043d919061138e565b6001600160a01b037f000000000000000000000000000000000000000000000000000000000000000016929190610eb4565b6104d47f00000000000000000000000000000000000000000000000000000000000000008560a00151836104a3919061138e565b6001600160a01b037f0000000000000000000000000000000000000000000000000000000000000000169190610ef0565b604051630116161960e31b8152600481018290527f00000000000000000000000000000000000000000000000000000000000000006001600160a01b0316906308b0b0c8906024015f604051808303815f87803b158015610533575f80fd5b505af1158015610545573d5f803e3d5ffd5b50506040805160048152602081018290526019818301527f426f62207072656d69756d20656e7465726564207661756c7400000000000000606082015290515f8051602061148a8339815191529350908190036080019150a160a0840151604051630116161960e31b815260048101919091527f00000000000000000000000000000000000000000000000000000000000000006001600160a01b0316906308b0b0c8906024015f604051808303815f87803b158015610603575f80fd5b505af1158015610615573d5f803e3d5ffd5b50506040805160058152602081018290526012818301527115985d5b1d0819585c9b9959081e5a595b1960721b606082015290515f8051602061148a8339815191529350908190036080019150a1604080516006815260208101829052600c818301526b13585c9ad95d081b5bdd995960a21b606082015290515f8051602061148a8339815191529181900360800190a16040805160078152602081018290526023818301527f5265616374697665206465746563746564207269736b207374617465206368616060820152626e676560e81b608082015290515f8051602061148a8339815191529181900360a00190a1604080516008815260208101829052601d818301527f416c696365206578697473202d206162736f7262732066756c6c20494c000000606082015290515f8051602061148a8339815191529181900360800190a16040805160098152602081018290526027818301527f426f62206578697473202d20636c61696d2074726967676572656420627920526060820152666561637469766560c81b608082015290515f8051602061148a8339815191529181900360a00190a15f6107d0855f01518660200151610f6f565b90505f6107e1828760400151611087565b90505f61087c82886060015189604001518a608001517f00000000000000000000000000000000000000000000000000000000000000006001600160a01b0316635675eef06040518163ffffffff1660e01b8152600401602060405180830381865afa158015610853573d5f803e3d5ffd5b505050506040513d601f19601f8201168201806040525081019061087791906113a1565b611095565b60408051600a8152602081018290526018818301527f436c61696d20736574746c65642066726f6d207661756c740000000000000000606082015290519194505f8051602061148a83398151915293508190036080019150a15f7f00000000000000000000000000000000000000000000000000000000000000006001600160a01b03166301e1d1146040518163ffffffff1660e01b8152600401602060405180830381865afa158015610932573d5f803e3d5ffd5b505050506040513d601f19601f8201168201806040525081019061095691906113a1565b90505f7f00000000000000000000000000000000000000000000000000000000000000006001600160a01b031663a408d4ce6040518163ffffffff1660e01b8152600401602060405180830381865afa1580156109b5573d5f803e3d5ffd5b505050506040513d601f19601f820116820180604052508101906109d991906113a1565b90506040518061016001604052808b60028111156109f9576109f9611235565b8152602001858152602001858152602001858152602001848152602001888152602001848611610a295788610a3e565b88610a3486886113b8565b610a3e919061138e565b8152602001848611610a505788610a65565b88610a5b86886113b8565b610a65919061138e565b8611610a71575f610a9d565b848611610a7e5788610a93565b88610a8986886113b8565b610a93919061138e565b610a9d90876113b8565b81526020810184905260408101839052611b588310606090910152805160018054909190829060ff191681836002811115610ada57610ada611235565b021790555060208201516001808301919091556040808401516002840155606084015160038401556080840151600484015560a0840151600584015560c0840151600684015560e084015160078401556101008401516008840155610120840151600984015561014090930151600a909201805492151560ff19938416179055600c8054909216179055515f8051602061148a83398151915290610bb790600b9060ff9190911681526040602082018190526016908201527546696e616c20636f6d70617269736f6e20726561647960501b606082015260800190565b60405180910390a1896002811115610bd157610bd1611235565b7fb84f820ee5a604de7dc137f48774b280468c9a2d8f0a899cd56d79780793a7796001604051610c0191906113cb565b60405180910390a250505050505050505050565b610c5a6040518060c001604052805f6001600160a01b031681526020015f6001600160a01b031681526020015f81526020015f81526020015f81526020015f81525090565b69021e19e0c9bab240000060408201526101f46060820152683635c9adc5dea0000060808201526802b5e3af16b188000060a08201526a02ee4cc6d5cdcf0000000081525f826002811115610cb157610cb1611235565b03610ccc576a0312ebd2ab988f600000006020820152919050565b6001826002811115610ce057610ce0611235565b03610cfb576a0425159526f86f400000006020820152919050565b6a05dc998dab9b9e000000006020820152919050565b610d19610e67565b610d225f6110f2565b565b610d79604080516101608101909152805f81526020015f81526020015f81526020015f81526020015f81526020015f81526020015f81526020015f81526020015f81526020015f81526020015f151581525090565b60408051610160810190915260018054829060ff166002811115610d9f57610d9f611235565b6002811115610db057610db0611235565b815260018201546020820152600282015460408201526003820154606082015260048201546080820152600582015460a0820152600682015460c0820152600782015460e082015260088201546101008201526009820154610120820152600a9091015460ff16151561014090910152919050565b610e2d610e67565b6001600160a01b038116610e5b57604051631e4fbdf760e01b81525f60048201526024015b60405180910390fd5b610e64816110f2565b50565b5f546001600160a01b03163314610d225760405163118cdaa760e01b8152336004820152602401610e52565b5f612710610ea18385611453565b610eab919061146a565b90505b92915050565b610ec2848484846001611141565b610eea57604051635274afe760e01b81526001600160a01b0385166004820152602401610e52565b50505050565b610efc8383835f6111ae565b610f6a57610f0d83835f60016111ae565b610f3557604051635274afe760e01b81526001600160a01b0384166004820152602401610e52565b610f4283838360016111ae565b610f6a57604051635274afe760e01b81526001600160a01b0384166004820152602401610e52565b505050565b5f6001600160a01b0383161580610f975750826001600160a01b0316826001600160a01b0316145b15610fa357505f610eae565b5f836001600160a01b0316670de0b6b3a7640000846001600160a01b0316610fcb9190611453565b610fd5919061146a565b90505f610fe3826002611453565b90505f670de0b6b3a7640000610ff98480611453565b611003919061146a565b61101590670de0b6b3a764000061138e565b90505f8161102b670de0b6b3a764000085611453565b611035919061146a565b9050670de0b6b3a76400008110611052575f945050505050610eae565b670de0b6b3a764000061271061106883836113b8565b6110729190611453565b61107c919061146a565b979650505050505050565b5f612710610ea18484611453565b5f80806127106110a58888611453565b6110af919061146a565b92508288116110c257505f9050806110e7565b6110cc83896113b8565b9150819050848111156110dc5750835b838111156110e75750825b955095509592505050565b5f80546001600160a01b038381166001600160a01b0319831681178455604051919092169283917f8be0079c531659141344cd1fd0a4f28419497f9722a3daafe3b4186f6b6457e09190a35050565b6040516323b872dd60e01b5f8181526001600160a01b038781166004528616602452604485905291602083606481808c5af1925060015f5114831661119d578383151615611191573d5f823e3d81fd5b5f883b113d1516831692505b604052505f60605295945050505050565b60405163095ea7b360e01b5f8181526001600160a01b038616600452602485905291602083604481808b5af1925060015f511483166112045783831516156111f8573d5f823e3d81fd5b5f873b113d1516831692505b60405250949350505050565b5f60208284031215611220575f80fd5b81356003811061122e575f80fd5b9392505050565b634e487b7160e01b5f52602160045260245ffd5b6003811061126557634e487b7160e01b5f52602160045260245ffd5b9052565b5f6101608201905061127c828451611249565b6020830151602083015260408301516040830152606083015160608301526080830151608083015260a083015160a083015260c083015160c083015260e083015160e08301526101008301516101008301526101208301516101208301526101408301516112ef61014084018215159052565b5092915050565b6101608101611305828e611249565b602082019b909b5260408101999099526060890197909752608088019590955260a087019390935260c086019190915260e0850152610100840152610120830152151561014090910152919050565b5f60208284031215611364575f80fd5b81356001600160a01b038116811461122e575f80fd5b634e487b7160e01b5f52601160045260245ffd5b80820180821115610eae57610eae61137a565b5f602082840312156113b1575f80fd5b5051919050565b81810381811115610eae57610eae61137a565b81546101608201906113e190839060ff16611249565b60018301546020830152600283015460408301526003830154606083015260048301546080830152600583015460a0830152600683015460c0830152600783015460e083015260088301546101008301526009830154610120830152600a83015460ff168015156101408401526112ef565b8082028115828204841417610eae57610eae61137a565b5f8261148457634e487b7160e01b5f52601260045260245ffd5b50049056fe2a5b8eaf93b1fa01596c87fd4030a4f1de5a11148b114646e246c0924dd0b571a264697066735822122074fbd22cee5f1d864c532d4a82060893f3c941a95def81a2405f45ee0d4f729e64736f6c634300081a0033","linkReferences":{}},"methodIdentifiers":{"PRICE_2000()":"91e131e6","PRICE_2080()":"89d2e929","PRICE_2800()":"b400e202","PRICE_4000()":"b8e1aca3","getLastResult()":"92093dd6","getScenarioConfig(uint8)":"1a59920b","hook()":"7f5a7c7b","lastResult()":"abcc11d8","owner()":"8da5cb5b","ran()":"0472f549","renounceOwnership()":"715018a6","runScenario(uint8)":"0ccfac83","token()":"fc0c546a","transferOwnership(address)":"f2fde38b","vault()":"fbfa77cf"},"id":50}