{"abi":[{"type":"constructor","inputs":[{"name":"_poolManager","type":"address","internalType":"contract IPoolManager"},{"name":"_vault","type":"address","internalType":"contract InsuranceVault"},{"name":"initialOwner","type":"address","internalType":"address"}],"stateMutability":"nonpayable"},{"type":"function","name":"afterAddLiquidity","inputs":[{"name":"","type":"address","internalType":"address"},{"name":"","type":"tuple","internalType":"struct PoolKey","components":[{"name":"currency0","type":"address","internalType":"Currency"},{"name":"currency1","type":"address","internalType":"Currency"},{"name":"fee","type":"uint24","internalType":"uint24"},{"name":"tickSpacing","type":"int24","internalType":"int24"},{"name":"hooks","type":"address","internalType":"contract IHooks"}]},{"name":"","type":"tuple","internalType":"struct IPoolManager.ModifyLiquidityParams","components":[{"name":"tickLower","type":"int24","internalType":"int24"},{"name":"tickUpper","type":"int24","internalType":"int24"},{"name":"liquidityDelta","type":"int256","internalType":"int256"},{"name":"salt","type":"bytes32","internalType":"bytes32"}]},{"name":"","type":"int256","internalType":"BalanceDelta"},{"name":"","type":"int256","internalType":"BalanceDelta"},{"name":"","type":"bytes","internalType":"bytes"}],"outputs":[{"name":"","type":"bytes4","internalType":"bytes4"},{"name":"","type":"int256","internalType":"BalanceDelta"}],"stateMutability":"nonpayable"},{"type":"function","name":"afterDonate","inputs":[{"name":"","type":"address","internalType":"address"},{"name":"","type":"tuple","internalType":"struct PoolKey","components":[{"name":"currency0","type":"address","internalType":"Currency"},{"name":"currency1","type":"address","internalType":"Currency"},{"name":"fee","type":"uint24","internalType":"uint24"},{"name":"tickSpacing","type":"int24","internalType":"int24"},{"name":"hooks","type":"address","internalType":"contract IHooks"}]},{"name":"","type":"uint256","internalType":"uint256"},{"name":"","type":"uint256","internalType":"uint256"},{"name":"","type":"bytes","internalType":"bytes"}],"outputs":[{"name":"","type":"bytes4","internalType":"bytes4"}],"stateMutability":"nonpayable"},{"type":"function","name":"afterInitialize","inputs":[{"name":"","type":"address","internalType":"address"},{"name":"","type":"tuple","internalType":"struct PoolKey","components":[{"name":"currency0","type":"address","internalType":"Currency"},{"name":"currency1","type":"address","internalType":"Currency"},{"name":"fee","type":"uint24","internalType":"uint24"},{"name":"tickSpacing","type":"int24","internalType":"int24"},{"name":"hooks","type":"address","internalType":"contract IHooks"}]},{"name":"","type":"uint160","internalType":"uint160"},{"name":"","type":"int24","internalType":"int24"}],"outputs":[{"name":"","type":"bytes4","internalType":"bytes4"}],"stateMutability":"nonpayable"},{"type":"function","name":"afterRemoveLiquidity","inputs":[{"name":"","type":"address","internalType":"address"},{"name":"key","type":"tuple","internalType":"struct PoolKey","components":[{"name":"currency0","type":"address","internalType":"Currency"},{"name":"currency1","type":"address","internalType":"Currency"},{"name":"fee","type":"uint24","internalType":"uint24"},{"name":"tickSpacing","type":"int24","internalType":"int24"},{"name":"hooks","type":"address","internalType":"contract IHooks"}]},{"name":"","type":"tuple","internalType":"struct IPoolManager.ModifyLiquidityParams","components":[{"name":"tickLower","type":"int24","internalType":"int24"},{"name":"tickUpper","type":"int24","internalType":"int24"},{"name":"liquidityDelta","type":"int256","internalType":"int256"},{"name":"salt","type":"bytes32","internalType":"bytes32"}]},{"name":"","type":"int256","internalType":"BalanceDelta"},{"name":"","type":"int256","internalType":"BalanceDelta"},{"name":"hookData","type":"bytes","internalType":"bytes"}],"outputs":[{"name":"","type":"bytes4","internalType":"bytes4"},{"name":"","type":"int256","internalType":"BalanceDelta"}],"stateMutability":"nonpayable"},{"type":"function","name":"afterSwap","inputs":[{"name":"","type":"address","internalType":"address"},{"name":"key","type":"tuple","internalType":"struct PoolKey","components":[{"name":"currency0","type":"address","internalType":"Currency"},{"name":"currency1","type":"address","internalType":"Currency"},{"name":"fee","type":"uint24","internalType":"uint24"},{"name":"tickSpacing","type":"int24","internalType":"int24"},{"name":"hooks","type":"address","internalType":"contract IHooks"}]},{"name":"","type":"tuple","internalType":"struct IPoolManager.SwapParams","components":[{"name":"zeroForOne","type":"bool","internalType":"bool"},{"name":"amountSpecified","type":"int256","internalType":"int256"},{"name":"sqrtPriceLimitX96","type":"uint160","internalType":"uint160"}]},{"name":"","type":"int256","internalType":"BalanceDelta"},{"name":"","type":"bytes","internalType":"bytes"}],"outputs":[{"name":"","type":"bytes4","internalType":"bytes4"},{"name":"","type":"int128","internalType":"int128"}],"stateMutability":"nonpayable"},{"type":"function","name":"beforeAddLiquidity","inputs":[{"name":"","type":"address","internalType":"address"},{"name":"","type":"tuple","internalType":"struct PoolKey","components":[{"name":"currency0","type":"address","internalType":"Currency"},{"name":"currency1","type":"address","internalType":"Currency"},{"name":"fee","type":"uint24","internalType":"uint24"},{"name":"tickSpacing","type":"int24","internalType":"int24"},{"name":"hooks","type":"address","internalType":"contract IHooks"}]},{"name":"","type":"tuple","internalType":"struct IPoolManager.ModifyLiquidityParams","components":[{"name":"tickLower","type":"int24","internalType":"int24"},{"name":"tickUpper","type":"int24","internalType":"int24"},{"name":"liquidityDelta","type":"int256","internalType":"int256"},{"name":"salt","type":"bytes32","internalType":"bytes32"}]},{"name":"","type":"bytes","internalType":"bytes"}],"outputs":[{"name":"","type":"bytes4","internalType":"bytes4"}],"stateMutability":"nonpayable"},{"type":"function","name":"beforeDonate","inputs":[{"name":"","type":"address","internalType":"address"},{"name":"","type":"tuple","internalType":"struct PoolKey","components":[{"name":"currency0","type":"address","internalType":"Currency"},{"name":"currency1","type":"address","internalType":"Currency"},{"name":"fee","type":"uint24","internalType":"uint24"},{"name":"tickSpacing","type":"int24","internalType":"int24"},{"name":"hooks","type":"address","internalType":"contract IHooks"}]},{"name":"","type":"uint256","internalType":"uint256"},{"name":"","type":"uint256","internalType":"uint256"},{"name":"","type":"bytes","internalType":"bytes"}],"outputs":[{"name":"","type":"bytes4","internalType":"bytes4"}],"stateMutability":"nonpayable"},{"type":"function","name":"beforeInitialize","inputs":[{"name":"","type":"address","internalType":"address"},{"name":"","type":"tuple","internalType":"struct PoolKey","components":[{"name":"currency0","type":"address","internalType":"Currency"},{"name":"currency1","type":"address","internalType":"Currency"},{"name":"fee","type":"uint24","internalType":"uint24"},{"name":"tickSpacing","type":"int24","internalType":"int24"},{"name":"hooks","type":"address","internalType":"contract IHooks"}]},{"name":"","type":"uint160","internalType":"uint160"}],"outputs":[{"name":"","type":"bytes4","internalType":"bytes4"}],"stateMutability":"nonpayable"},{"type":"function","name":"beforeRemoveLiquidity","inputs":[{"name":"","type":"address","internalType":"address"},{"name":"","type":"tuple","internalType":"struct PoolKey","components":[{"name":"currency0","type":"address","internalType":"Currency"},{"name":"currency1","type":"address","internalType":"Currency"},{"name":"fee","type":"uint24","internalType":"uint24"},{"name":"tickSpacing","type":"int24","internalType":"int24"},{"name":"hooks","type":"address","internalType":"contract IHooks"}]},{"name":"","type":"tuple","internalType":"struct IPoolManager.ModifyLiquidityParams","components":[{"name":"tickLower","type":"int24","internalType":"int24"},{"name":"tickUpper","type":"int24","internalType":"int24"},{"name":"liquidityDelta","type":"int256","internalType":"int256"},{"name":"salt","type":"bytes32","internalType":"bytes32"}]},{"name":"","type":"bytes","internalType":"bytes"}],"outputs":[{"name":"","type":"bytes4","internalType":"bytes4"}],"stateMutability":"nonpayable"},{"type":"function","name":"beforeSwap","inputs":[{"name":"","type":"address","internalType":"address"},{"name":"","type":"tuple","internalType":"struct PoolKey","components":[{"name":"currency0","type":"address","internalType":"Currency"},{"name":"currency1","type":"address","internalType":"Currency"},{"name":"fee","type":"uint24","internalType":"uint24"},{"name":"tickSpacing","type":"int24","internalType":"int24"},{"name":"hooks","type":"address","internalType":"contract IHooks"}]},{"name":"","type":"tuple","internalType":"struct IPoolManager.SwapParams","components":[{"name":"zeroForOne","type":"bool","internalType":"bool"},{"name":"amountSpecified","type":"int256","internalType":"int256"},{"name":"sqrtPriceLimitX96","type":"uint160","internalType":"uint160"}]},{"name":"","type":"bytes","internalType":"bytes"}],"outputs":[{"name":"","type":"bytes4","internalType":"bytes4"},{"name":"","type":"int256","internalType":"BeforeSwapDelta"},{"name":"","type":"uint24","internalType":"uint24"}],"stateMutability":"nonpayable"},{"type":"function","name":"callbackProxy","inputs":[],"outputs":[{"name":"","type":"address","internalType":"address"}],"stateMutability":"view"},{"type":"function","name":"createPolicy","inputs":[{"name":"key","type":"tuple","internalType":"struct PoolKey","components":[{"name":"currency0","type":"address","internalType":"Currency"},{"name":"currency1","type":"address","internalType":"Currency"},{"name":"fee","type":"uint24","internalType":"uint24"},{"name":"tickSpacing","type":"int24","internalType":"int24"},{"name":"hooks","type":"address","internalType":"contract IHooks"}]},{"name":"notional","type":"uint256","internalType":"uint256"},{"name":"thresholdBps","type":"uint256","internalType":"uint256"},{"name":"maxPayout","type":"uint256","internalType":"uint256"},{"name":"expiry","type":"uint256","internalType":"uint256"}],"outputs":[{"name":"policyId","type":"uint256","internalType":"uint256"}],"stateMutability":"nonpayable"},{"type":"function","name":"getCurrentPremiumBps","inputs":[{"name":"poolId","type":"bytes32","internalType":"bytes32"}],"outputs":[{"name":"","type":"uint256","internalType":"uint256"}],"stateMutability":"view"},{"type":"function","name":"getHookPermissions","inputs":[],"outputs":[{"name":"","type":"tuple","internalType":"struct Hooks.Permissions","components":[{"name":"beforeInitialize","type":"bool","internalType":"bool"},{"name":"afterInitialize","type":"bool","internalType":"bool"},{"name":"beforeAddLiquidity","type":"bool","internalType":"bool"},{"name":"afterAddLiquidity","type":"bool","internalType":"bool"},{"name":"beforeRemoveLiquidity","type":"bool","internalType":"bool"},{"name":"afterRemoveLiquidity","type":"bool","internalType":"bool"},{"name":"beforeSwap","type":"bool","internalType":"bool"},{"name":"afterSwap","type":"bool","internalType":"bool"},{"name":"beforeDonate","type":"bool","internalType":"bool"},{"name":"afterDonate","type":"bool","internalType":"bool"},{"name":"beforeSwapReturnDelta","type":"bool","internalType":"bool"},{"name":"afterSwapReturnDelta","type":"bool","internalType":"bool"},{"name":"afterAddLiquidityReturnDelta","type":"bool","internalType":"bool"},{"name":"afterRemoveLiquidityReturnDelta","type":"bool","internalType":"bool"}]}],"stateMutability":"pure"},{"type":"function","name":"getPoliciesForOwner","inputs":[{"name":"owner_","type":"address","internalType":"address"}],"outputs":[{"name":"","type":"uint256[]","internalType":"uint256[]"}],"stateMutability":"view"},{"type":"function","name":"getPolicy","inputs":[{"name":"policyId","type":"uint256","internalType":"uint256"}],"outputs":[{"name":"","type":"tuple","internalType":"struct IIndemnifiHook.Policy","components":[{"name":"owner","type":"address","internalType":"address"},{"name":"poolId","type":"bytes32","internalType":"PoolId"},{"name":"token","type":"address","internalType":"address"},{"name":"notional","type":"uint256","internalType":"uint256"},{"name":"entryPrice","type":"uint160","internalType":"uint160"},{"name":"thresholdBps","type":"uint256","internalType":"uint256"},{"name":"maxPayout","type":"uint256","internalType":"uint256"},{"name":"premiumPaid","type":"uint256","internalType":"uint256"},{"name":"createdAt","type":"uint256","internalType":"uint256"},{"name":"expiry","type":"uint256","internalType":"uint256"},{"name":"status","type":"uint8","internalType":"enum IIndemnifiHook.PolicyStatus"}]}],"stateMutability":"view"},{"type":"function","name":"getPremiumForNotional","inputs":[{"name":"poolId","type":"bytes32","internalType":"bytes32"},{"name":"notional","type":"uint256","internalType":"uint256"}],"outputs":[{"name":"","type":"uint256","internalType":"uint256"}],"stateMutability":"view"},{"type":"function","name":"getRiskTier","inputs":[{"name":"poolId","type":"bytes32","internalType":"bytes32"}],"outputs":[{"name":"","type":"uint8","internalType":"enum IIndemnifiHook.RiskTier"}],"stateMutability":"view"},{"type":"function","name":"isCoveragePaused","inputs":[{"name":"poolId","type":"bytes32","internalType":"bytes32"}],"outputs":[{"name":"","type":"bool","internalType":"bool"}],"stateMutability":"view"},{"type":"function","name":"nextPolicyId","inputs":[],"outputs":[{"name":"","type":"uint256","internalType":"uint256"}],"stateMutability":"view"},{"type":"function","name":"owner","inputs":[],"outputs":[{"name":"","type":"address","internalType":"address"}],"stateMutability":"view"},{"type":"function","name":"pauseCoverage","inputs":[{"name":"poolId","type":"bytes32","internalType":"bytes32"}],"outputs":[],"stateMutability":"nonpayable"},{"type":"function","name":"poolManager","inputs":[],"outputs":[{"name":"","type":"address","internalType":"contract IPoolManager"}],"stateMutability":"view"},{"type":"function","name":"renounceOwnership","inputs":[],"outputs":[],"stateMutability":"nonpayable"},{"type":"function","name":"resumeCoverage","inputs":[{"name":"poolId","type":"bytes32","internalType":"bytes32"}],"outputs":[],"stateMutability":"nonpayable"},{"type":"function","name":"setCallbackProxy","inputs":[{"name":"proxy","type":"address","internalType":"address"}],"outputs":[],"stateMutability":"nonpayable"},{"type":"function","name":"settleClaim","inputs":[{"name":"policyId","type":"uint256","internalType":"uint256"},{"name":"exitSqrtPriceX96","type":"uint160","internalType":"uint160"}],"outputs":[],"stateMutability":"nonpayable"},{"type":"function","name":"transferOwnership","inputs":[{"name":"newOwner","type":"address","internalType":"address"}],"outputs":[],"stateMutability":"nonpayable"},{"type":"function","name":"unlockCallback","inputs":[{"name":"data","type":"bytes","internalType":"bytes"}],"outputs":[{"name":"","type":"bytes","internalType":"bytes"}],"stateMutability":"nonpayable"},{"type":"function","name":"updateRiskTier","inputs":[{"name":"poolId","type":"bytes32","internalType":"bytes32"},{"name":"newTier","type":"uint8","internalType":"enum IIndemnifiHook.RiskTier"}],"outputs":[],"stateMutability":"nonpayable"},{"type":"function","name":"vault","inputs":[],"outputs":[{"name":"","type":"address","internalType":"contract InsuranceVault"}],"stateMutability":"view"},{"type":"event","name":"ClaimExpired","inputs":[{"name":"policyId","type":"uint256","indexed":true,"internalType":"uint256"}],"anonymous":false},{"type":"event","name":"ClaimPaid","inputs":[{"name":"policyId","type":"uint256","indexed":true,"internalType":"uint256"},{"name":"owner","type":"address","indexed":true,"internalType":"address"},{"name":"payout","type":"uint256","indexed":false,"internalType":"uint256"},{"name":"vaultBalance","type":"uint256","indexed":false,"internalType":"uint256"}],"anonymous":false},{"type":"event","name":"ClaimRequested","inputs":[{"name":"policyId","type":"uint256","indexed":true,"internalType":"uint256"},{"name":"owner","type":"address","indexed":true,"internalType":"address"},{"name":"ilBps","type":"uint256","indexed":false,"internalType":"uint256"}],"anonymous":false},{"type":"event","name":"CoveragePaused","inputs":[{"name":"poolId","type":"bytes32","indexed":true,"internalType":"bytes32"},{"name":"reason","type":"string","indexed":false,"internalType":"string"}],"anonymous":false},{"type":"event","name":"CoverageResumed","inputs":[{"name":"poolId","type":"bytes32","indexed":true,"internalType":"bytes32"}],"anonymous":false},{"type":"event","name":"OwnershipTransferred","inputs":[{"name":"previousOwner","type":"address","indexed":true,"internalType":"address"},{"name":"newOwner","type":"address","indexed":true,"internalType":"address"}],"anonymous":false},{"type":"event","name":"PolicyCreated","inputs":[{"name":"policyId","type":"uint256","indexed":true,"internalType":"uint256"},{"name":"owner","type":"address","indexed":true,"internalType":"address"},{"name":"poolId","type":"bytes32","indexed":true,"internalType":"bytes32"},{"name":"notional","type":"uint256","indexed":false,"internalType":"uint256"},{"name":"thresholdBps","type":"uint256","indexed":false,"internalType":"uint256"},{"name":"premiumPaid","type":"uint256","indexed":false,"internalType":"uint256"}],"anonymous":false},{"type":"event","name":"PolicyExitRequested","inputs":[{"name":"policyId","type":"uint256","indexed":true,"internalType":"uint256"},{"name":"owner","type":"address","indexed":true,"internalType":"address"},{"name":"poolId","type":"bytes32","indexed":true,"internalType":"bytes32"},{"name":"exitSqrtPriceX96","type":"uint160","indexed":false,"internalType":"uint160"}],"anonymous":false},{"type":"event","name":"PremiumRateUpdated","inputs":[{"name":"poolId","type":"bytes32","indexed":true,"internalType":"bytes32"},{"name":"oldBps","type":"uint256","indexed":false,"internalType":"uint256"},{"name":"newBps","type":"uint256","indexed":false,"internalType":"uint256"}],"anonymous":false},{"type":"event","name":"RiskTierChanged","inputs":[{"name":"poolId","type":"bytes32","indexed":true,"internalType":"bytes32"},{"name":"oldTier","type":"uint8","indexed":false,"internalType":"enum IIndemnifiHook.RiskTier"},{"name":"newTier","type":"uint8","indexed":false,"internalType":"enum IIndemnifiHook.RiskTier"},{"name":"solvencyBps","type":"uint256","indexed":false,"internalType":"uint256"}],"anonymous":false},{"type":"event","name":"SwapObserved","inputs":[{"name":"poolId","type":"bytes32","indexed":true,"internalType":"bytes32"},{"name":"sqrtPriceX96","type":"uint160","indexed":false,"internalType":"uint160"},{"name":"tick","type":"int24","indexed":false,"internalType":"int24"},{"name":"timestamp","type":"uint256","indexed":false,"internalType":"uint256"}],"anonymous":false},{"type":"error","name":"CoveragePausedForPool","inputs":[]},{"type":"error","name":"HookNotImplemented","inputs":[]},{"type":"error","name":"InvalidThreshold","inputs":[]},{"type":"error","name":"NotPoolManager","inputs":[]},{"type":"error","name":"OwnableInvalidOwner","inputs":[{"name":"owner","type":"address","internalType":"address"}]},{"type":"error","name":"OwnableUnauthorizedAccount","inputs":[{"name":"account","type":"address","internalType":"address"}]},{"type":"error","name":"PolicyNotFound","inputs":[]},{"type":"error","name":"PolicyNotPending","inputs":[]},{"type":"error","name":"SafeERC20FailedOperation","inputs":[{"name":"token","type":"address","internalType":"address"}]},{"type":"error","name":"Unauthorized","inputs":[]},{"type":"error","name":"ZeroNotional","inputs":[]}],"bytecode":{"object":"0x60c060405234801561000f575f80fd5b5060405161287438038061287483398101604081905261002e91610343565b6001600160a01b038316608052808361012d30610128604080516101c0810182525f80825260208201819052918101829052606081018290526080810182905260a0810182905260c0810182905260e08101829052610100810182905261012081018290526101408101829052610160810182905261018081018290526101a081019190915250604080516101c0810182525f808252602082018190529181018290526060810182905260808101829052600160a0820181905260c0820183905260e0820152610100810182905261012081018290526101408101829052610160810182905261018081018290526101a081019190915290565b610178565b506001600160a01b03811661015b57604051631e4fbdf760e01b81525f600482015260240160405180910390fd5b610164816102c8565b50506001600160a01b031660a0525061038d565b805115156120008316151514158061019c5750602081015115156110008316151514155b806101b35750604081015115156108008316151514155b806101ca5750606081015115156104008316151514155b806101e15750608081015115156102008316151514155b806101f8575060a081015115156101008316151514155b8061020e575060c0810151151560808316151514155b80610224575060e0810151151560408316151514155b8061023b5750610100810151151560208316151514155b806102525750610120810151151560108316151514155b806102695750610140810151151560088316151514155b806102805750610160810151151560048316151514155b806102975750610180810151151560028316151514155b806102ae57506101a0810151151560018316151514155b156102c4576102c4630732d7b560e51b83610317565b5050565b5f80546001600160a01b038381166001600160a01b0319831681178455604051919092169283917f8be0079c531659141344cd1fd0a4f28419497f9722a3daafe3b4186f6b6457e09190a35050565b815f526001600160a01b03811660045260245ffd5b6001600160a01b0381168114610340575f80fd5b50565b5f805f60608486031215610355575f80fd5b83516103608161032c565b60208501519093506103718161032c565b60408501519092506103828161032c565b809150509250925092565b60805160a0516124726104025f395f81816105dd015281816108b90152818161090401528181610c8b01528181610d5d01528181610dfa0152818161110a0152818161159f015261165501525f8181610595015281816106c801528181610f550152818161121d015261134f01526124725ff3fe608060405234801561000f575f80fd5b50600436106101dc575f3560e01c8063869662a511610109578063c4e833ce1161009e578063dc98354e1161006e578063dc98354e146105b7578063e1b4af691461045f578063f2fde38b146105c5578063fbfa77cf146105d8575f80fd5b8063c4e833ce14610480578063c92bb14f14610574578063cad0b8db14610587578063dc4c90d314610590575f80fd5b8063a4adc080116100d9578063a4adc08014610416578063b47b2fb114610429578063b6a8b0fa1461045f578063c19247541461046d575f80fd5b8063869662a5146103a45780638da5cb5b146103d357806391dd7346146103e35780639f063efc14610403575f80fd5b806350a2dc381161017f5780636fe7e6eb1161014f5780636fe7e6eb14610368578063715018a61461037657806376c4c9a01461037e5780637dc1342c14610391575f80fd5b806350a2dc38146102a5578063575e24b4146102d757806360de56a8146103155780636c2bbe7e14610335575f80fd5b80632b07fce3116101ba5780632b07fce3146102325780632f193e1c1461025257806337559f1e146102675780634cebc7da1461027a575f80fd5b806321d0ee70146101e0578063259982e5146101e057806327a741c814610211575b5f80fd5b6101f36101ee366004611c28565b6105ff565b6040516001600160e01b031990911681526020015b60405180910390f35b61022461021f366004611c9f565b610619565b604051908152602001610208565b610245610240366004611ce0565b6109b0565b6040516102089190611d1f565b610265610260366004611dcc565b610ad7565b005b610265610275366004611dfa565b610e99565b60015461028d906001600160a01b031681565b6040516001600160a01b039091168152602001610208565b6102c76102b3366004611ce0565b5f9081526005602052604090205460ff1690565b6040519015158152602001610208565b6102ea6102e5366004611e25565b610ec3565b604080516001600160e01b03199094168452602084019290925262ffffff1690820152606001610208565b610328610323366004611dfa565b610edf565b6040516102089190611e7f565b610348610343366004611ec1565b610f48565b604080516001600160e01b03199093168352602083019190915201610208565b6101f36101ee366004611f5d565b6102656110a0565b61022461038c366004611ce0565b6110b3565b61026561039f366004611ce0565b6110c3565b6103c66103b2366004611ce0565b5f9081526003602052604090205460ff1690565b6040516102089190611fc4565b5f546001600160a01b031661028d565b6103f66103f1366004611fd2565b611210565b6040516102089190612011565b610348610411366004611ec1565b611271565b610265610424366004611ce0565b61128c565b61043c610437366004612046565b611342565b604080516001600160e01b03199093168352600f9190910b602083015201610208565b6101f36101ee3660046120c7565b61022461047b366004612121565b611421565b610567604080516101c0810182525f80825260208201819052918101829052606081018290526080810182905260a0810182905260c0810182905260e08101829052610100810182905261012081018290526101408101829052610160810182905261018081018290526101a081019190915250604080516101c0810182525f808252602082018190529181018290526060810182905260808101829052600160a0820181905260c0820183905260e0820152610100810182905261012081018290526101408101829052610160810182905261018081018290526101a081019190915290565b6040516102089190612141565b61026561058236600461225b565b611434565b61022460075481565b61028d7f000000000000000000000000000000000000000000000000000000000000000081565b6101f36101ee366004612281565b6102656105d3366004611dfa565b61175b565b61028d7f000000000000000000000000000000000000000000000000000000000000000081565b5f604051630a85dc2960e01b815260040160405180910390fd5b5f8061063461062d368990038901896122da565b60a0902090565b5f8181526005602052604090205490915060ff161561066657604051631dd754a160e21b815260040160405180910390fd5b855f03610686576040516396bafbfd60e01b815260040160405180910390fd5b61271085106106a85760405163aabd5a0960e01b815260040160405180910390fd5b5f6106ee6106be61062d368b90038b018b6122da565b6001600160a01b037f00000000000000000000000000000000000000000000000000000000000000001690611798565b50505090505f6106fd8361184a565b90505f61070a898361186d565b90505f61071a60208c018c611dfa565b600780549192505f61072b83612388565b909155506040805161016081019091523381529096506020810161075761062d368f90038f018f6122da565b8152602001826001600160a01b031681526020018b8152602001856001600160a01b031681526020018a8152602001895f146107935789610795565b8b5b815260208101849052426040820152606081018990526080015f90525f87815260026020818152604092839020845181546001600160a01b03199081166001600160a01b039283161783559286015160018084019190915594860151938201805484169482169490941790935560608501516003820155608085015160048083018054909416919094161790915560a0840151600582015560c0840151600682015560e0840151600782015561010084015160088201556101208401516009820155610140840151600a8201805492949193909260ff19169190849081111561088057610880611cf7565b021790555050335f818152600660209081526040822080546001810182559083529120018890556108de91506001600160a01b038316907f000000000000000000000000000000000000000000000000000000000000000085611885565b604051635fc91fa160e01b81526001600160a01b038281166004830152602482018490527f00000000000000000000000000000000000000000000000000000000000000001690635fc91fa1906044015f604051808303815f87803b158015610945575f80fd5b505af1158015610957573d5f803e3d5ffd5b5050604080518d8152602081018d905290810185905287925033915088907ff855041c1961fa6719715581f092e52e41b459c1fcda7d7b224506f01e67b6c69060600160405180910390a4505050505095945050505050565b610a0c60408051610160810182525f80825260208201819052918101829052606081018290526080810182905260a0810182905260c0810182905260e08101829052610100810182905261012081018290529061014082015290565b5f8281526002602081815260409283902083516101608101855281546001600160a01b03908116825260018301549382019390935292810154821693830193909352600383015460608301526004808401549091166080830152600583015460a0830152600683015460c0830152600783015460e083015260088301546101008301526009830154610120830152600a83015491929161014084019160ff90911690811115610abd57610abd611cf7565b6004811115610ace57610ace611cf7565b90525092915050565b6001546001600160a01b03163314801590610afc57505f546001600160a01b03163314155b15610b19576040516282b42960e81b815260040160405180910390fd5b5f82815260026020526040902080546001600160a01b0316610b4e5760405163720caa4f60e01b815260040160405180910390fd5b6001600a82015460ff166004811115610b6957610b69611cf7565b14158015610b8f57505f600a82015460ff166004811115610b8c57610b8c611cf7565b14155b15610bad57604051633d87cc4d60e01b815260040160405180910390fd5b5f8160090154118015610bc35750806009015442115b15610c0657600a8101805460ff1916600317905560405183907ff5f3b23065c545069845a9b48e0828868634446543ab5782c8946b4f1b67b919905f90a2505050565b60048101545f90610c20906001600160a01b0316846118c1565b90505f610c318284600301546119d9565b83546040518481529192506001600160a01b03169086907fca846f83aa904cfad6dc6d2cec99ca71f7242b4a987a20dfd0b9d5b19318e1d99060200160405180910390a35f610d0e828560050154866003015487600601547f00000000000000000000000000000000000000000000000000000000000000006001600160a01b0316635675eef06040518163ffffffff1660e01b8152600401602060405180830381865afa158015610ce5573d5f803e3d5ffd5b505050506040513d601f19601f82011682018060405250810190610d0991906123a0565b6119e7565b600a8701805460ff1916600217905592505081159050610e915783546002850154604051633787fe3960e21b81526001600160a01b0392831660048201529082166024820152604481018390527f00000000000000000000000000000000000000000000000000000000000000009091169063de1ff8e4906064015f604051808303815f87803b158015610da0575f80fd5b505af1158015610db2573d5f803e3d5ffd5b50505050835f015f9054906101000a90046001600160a01b03166001600160a01b0316867f91d5919a63ba5f913174882721fc47a121b255bf86d3d8e0c7b0795e902650f3837f00000000000000000000000000000000000000000000000000000000000000006001600160a01b03166301e1d1146040518163ffffffff1660e01b8152600401602060405180830381865afa158015610e54573d5f803e3d5ffd5b505050506040513d601f19601f82011682018060405250810190610e7891906123a0565b6040805192835260208301919091520160405180910390a35b505050505050565b610ea1611a44565b600180546001600160a01b0319166001600160a01b0392909216919091179055565b5f805f604051630a85dc2960e01b815260040160405180910390fd5b6001600160a01b0381165f90815260066020908152604091829020805483518184028101840190945280845260609392830182828015610f3c57602002820191905f5260205f20905b815481526020019060010190808311610f28575b50505050509050919050565b5f80336001600160a01b037f00000000000000000000000000000000000000000000000000000000000000001614610f935760405163570c108560e11b815260040160405180910390fd5b60208310611089575f610fa884860186611ce0565b5f818152600260205260408120919250610fca61062d368d90038d018d6122da565b82549091506001600160a01b031615801590610fe95750808260010154145b801561100c57505f600a83015460ff16600481111561100a5761100a611cf7565b145b15611085575f6110276106be61062d368f90038f018f6122da565b505050600a8401805460ff1916600117905583546040516001600160a01b03808416825292935084929091169086907f249106b0470f2fe625976a10b348af14a5ed366681345be2ed8140278c3fd1a29060200160405180910390a4505b5050505b50633615df3f60e11b985f98509650505050505050565b6110a8611a44565b6110b15f611a70565b565b5f6110bd8261184a565b92915050565b6001546001600160a01b031633148015906110e857505f546001600160a01b03163314155b15611105576040516282b42960e81b815260040160405180910390fd5b6121347f00000000000000000000000000000000000000000000000000000000000000006001600160a01b031663a408d4ce6040518163ffffffff1660e01b8152600401602060405180830381865afa158015611164573d5f803e3d5ffd5b505050506040513d601f19601f8201168201806040525081019061118891906123a0565b10156111d15760405162461bcd60e51b81526020600482015260136024820152721d985d5b1d081b9bdd081c9958dbdd995c9959606a1b60448201526064015b60405180910390fd5b5f81815260056020526040808220805460ff191690555182917fe8902097c7a6bbc8931d7360e21fea48f9964da1cb54650f115d635b5d7d5ddf91a250565b6060336001600160a01b037f0000000000000000000000000000000000000000000000000000000000000000161461125b5760405163570c108560e11b815260040160405180910390fd5b60408051602081019091525f81525b9392505050565b5f80604051630a85dc2960e01b815260040160405180910390fd5b6001546001600160a01b031633148015906112b157505f546001600160a01b03163314155b156112ce576040516282b42960e81b815260040160405180910390fd5b5f8181526005602052604090819020805460ff191660011790555181907f5ef9af3025ba63f366e534826500ae82a4680ebe70d1a5b7b1d82cab025becdb90611337906020808252600c908201526b0ecc2ead8e840d0cac2d8e8d60a31b604082015260600190565b60405180910390a250565b5f80336001600160a01b037f0000000000000000000000000000000000000000000000000000000000000000161461138d5760405163570c108560e11b815260040160405180910390fd5b5f806113a46106be61062d368c90038c018c6122da565b5050915091506113be8980360381019061062d91906122da565b604080516001600160a01b0385168152600284900b6020820152428183015290517f5542ab7059a73df94dd1952339f9137074dcaa41ba2614d9c0a7b3ebbb3f84459181900360600190a25063b47b2fb160e01b995f9950975050505050505050565b5f61126a8261142f8561184a565b61186d565b6001546001600160a01b0316331480159061145957505f546001600160a01b03163314155b15611476576040516282b42960e81b815260040160405180910390fd5b5f8281526003602052604090205460ff1681600281111561149957611499611cf7565b8160028111156114ab576114ab611cf7565b036114b557505050565b5f838152600360205260409020805483919060ff191660018360028111156114df576114df611cf7565b02179055505f838152600460205260408120541561150a575f8481526004602052604090205461150d565b60965b90505f61152a84600281111561152557611525611cf7565b611abf565b5f86815260046020908152604091829020839055815185815290810183905291925086917f627a9c54f471b7b4addf0ced5ee855ea337d435d89b11e38d1f96cba3db5dd7d910160405180910390a2847fa25883a44cc561550b7c8dbc7d647a9a1a5523b726da8b10d7021231d255cf1e84867f00000000000000000000000000000000000000000000000000000000000000006001600160a01b031663a408d4ce6040518163ffffffff1660e01b8152600401602060405180830381865afa1580156115f9573d5f803e3d5ffd5b505050506040513d601f19601f8201168201806040525081019061161d91906123a0565b60405161162c939291906123b7565b60405180910390a2600284600281111561164857611648611cf7565b1480156116d55750611b587f00000000000000000000000000000000000000000000000000000000000000006001600160a01b031663a408d4ce6040518163ffffffff1660e01b8152600401602060405180830381865afa1580156116af573d5f803e3d5ffd5b505050506040513d601f19601f820116820180604052508101906116d391906123a0565b105b15611754575f8581526005602052604090819020805460ff191660011790555185907f5ef9af3025ba63f366e534826500ae82a4680ebe70d1a5b7b1d82cab025becdb9061174b9060208082526014908201527373686f636b202b206c6f7720736f6c76656e637960601b604082015260600190565b60405180910390a25b5050505050565b611763611a44565b6001600160a01b03811661178c57604051631e4fbdf760e01b81525f60048201526024016111c8565b61179581611a70565b50565b5f805f805f6117a686611af0565b604051631e2eaeaf60e01b8152600481018290529091505f906001600160a01b03891690631e2eaeaf90602401602060405180830381865afa1580156117ee573d5f803e3d5ffd5b505050506040513d601f19601f8201168201806040525081019061181291906123a0565b90506001600160a01b03811695508060a01c60020b945062ffffff8160b81c16935062ffffff8160d01c169250505092959194509250565b5f818152600460205260408120548015611864578061126a565b60969392505050565b5f61271061187b83856123e0565b61126a91906123f7565b611893848484846001611b2c565b6118bb57604051635274afe760e01b81526001600160a01b03851660048201526024016111c8565b50505050565b5f6001600160a01b03831615806118e95750826001600160a01b0316826001600160a01b0316145b156118f557505f6110bd565b5f836001600160a01b0316670de0b6b3a7640000846001600160a01b031661191d91906123e0565b61192791906123f7565b90505f6119358260026123e0565b90505f670de0b6b3a764000061194b84806123e0565b61195591906123f7565b61196790670de0b6b3a7640000612416565b90505f8161197d670de0b6b3a7640000856123e0565b61198791906123f7565b9050670de0b6b3a764000081106119a4575f9450505050506110bd565b670de0b6b3a76400006127106119ba8383612429565b6119c491906123e0565b6119ce91906123f7565b979650505050505050565b5f61271061187b84846123e0565b5f80806127106119f788886123e0565b611a0191906123f7565b9250828811611a1457505f905080611a39565b611a1e8389612429565b915081905084811115611a2e5750835b83811115611a395750825b955095509592505050565b5f546001600160a01b031633146110b15760405163118cdaa760e01b81523360048201526024016111c8565b5f80546001600160a01b038381166001600160a01b0319831681178455604051919092169283917f8be0079c531659141344cd1fd0a4f28419497f9722a3daafe3b4186f6b6457e09190a35050565b5f8160ff16600103611ad4575061012c919050565b8160ff16600203611ae857506102bc919050565b506096919050565b6040515f90611b0f908390600690602001918252602082015260400190565b604051602081830303815290604052805190602001209050919050565b6040516323b872dd60e01b5f8181526001600160a01b038781166004528616602452604485905291602083606481808c5af1925060015f51148316611b88578383151615611b7c573d5f823e3d81fd5b5f883b113d1516831692505b604052505f60605295945050505050565b6001600160a01b0381168114611795575f80fd5b8035611bb881611b99565b919050565b5f60a08284031215611bcd575f80fd5b50919050565b5f60808284031215611bcd575f80fd5b5f8083601f840112611bf3575f80fd5b50813567ffffffffffffffff811115611c0a575f80fd5b602083019150836020828501011115611c21575f80fd5b9250929050565b5f805f805f6101608688031215611c3d575f80fd5b8535611c4881611b99565b9450611c578760208801611bbd565b9350611c668760c08801611bd3565b925061014086013567ffffffffffffffff811115611c82575f80fd5b611c8e88828901611be3565b969995985093965092949392505050565b5f805f805f6101208688031215611cb4575f80fd5b611cbe8787611bbd565b9760a0870135975060c08701359660e081013596506101000135945092505050565b5f60208284031215611cf0575f80fd5b5035919050565b634e487b7160e01b5f52602160045260245ffd5b60058110611d1b57611d1b611cf7565b9052565b81516001600160a01b031681526101608101602083015160208301526040830151611d5560408401826001600160a01b03169052565b50606083015160608301526080830151611d7a60808401826001600160a01b03169052565b5060a083015160a083015260c083015160c083015260e083015160e0830152610100830151610100830152610120830151610120830152610140830151611dc5610140840182611d0b565b5092915050565b5f8060408385031215611ddd575f80fd5b823591506020830135611def81611b99565b809150509250929050565b5f60208284031215611e0a575f80fd5b813561126a81611b99565b5f60608284031215611bcd575f80fd5b5f805f805f6101408688031215611e3a575f80fd5b8535611e4581611b99565b9450611e548760208801611bbd565b9350611e638760c08801611e15565b925061012086013567ffffffffffffffff811115611c82575f80fd5b602080825282518282018190525f918401906040840190835b81811015611eb6578351835260209384019390920191600101611e98565b509095945050505050565b5f805f805f805f6101a0888a031215611ed8575f80fd5b8735611ee381611b99565b9650611ef28960208a01611bbd565b9550611f018960c08a01611bd3565b94506101408801359350610160880135925061018088013567ffffffffffffffff811115611f2d575f80fd5b611f398a828b01611be3565b989b979a50959850939692959293505050565b8035600281900b8114611bb8575f80fd5b5f805f806101008587031215611f71575f80fd5b8435611f7c81611b99565b9350611f8b8660208701611bbd565b925060c0850135611f9b81611b99565b9150611fa960e08601611f4c565b905092959194509250565b60038110611d1b57611d1b611cf7565b602081016110bd8284611fb4565b5f8060208385031215611fe3575f80fd5b823567ffffffffffffffff811115611ff9575f80fd5b61200585828601611be3565b90969095509350505050565b602081525f82518060208401528060208501604085015e5f604082850101526040601f19601f83011684010191505092915050565b5f805f805f80610160878903121561205c575f80fd5b863561206781611b99565b95506120768860208901611bbd565b94506120858860c08901611e15565b9350610120870135925061014087013567ffffffffffffffff8111156120a9575f80fd5b6120b589828a01611be3565b979a9699509497509295939492505050565b5f805f805f8061012087890312156120dd575f80fd5b86356120e881611b99565b95506120f78860208901611bbd565b945060c0870135935060e0870135925061010087013567ffffffffffffffff8111156120a9575f80fd5b5f8060408385031215612132575f80fd5b50508035926020909101359150565b8151151581526101c08101602083015161215f602084018215159052565b506040830151612173604084018215159052565b506060830151612187606084018215159052565b50608083015161219b608084018215159052565b5060a08301516121af60a084018215159052565b5060c08301516121c360c084018215159052565b5060e08301516121d760e084018215159052565b506101008301516121ed61010084018215159052565b5061012083015161220361012084018215159052565b5061014083015161221961014084018215159052565b5061016083015161222f61016084018215159052565b5061018083015161224561018084018215159052565b506101a0830151611dc56101a084018215159052565b5f806040838503121561226c575f80fd5b82359150602083013560038110611def575f80fd5b5f805f60e08486031215612293575f80fd5b833561229e81611b99565b92506122ad8560208601611bbd565b915060c08401356122bd81611b99565b809150509250925092565b803562ffffff81168114611bb8575f80fd5b5f60a08284031280156122eb575f80fd5b5060405160a0810167ffffffffffffffff8111828210171561231b57634e487b7160e01b5f52604160045260245ffd5b60405261232783611bad565b815261233560208401611bad565b6020820152612346604084016122c8565b604082015261235760608401611f4c565b606082015261236860808401611bad565b60808201529392505050565b634e487b7160e01b5f52601160045260245ffd5b5f6001820161239957612399612374565b5060010190565b5f602082840312156123b0575f80fd5b5051919050565b606081016123c58286611fb4565b6123d26020830185611fb4565b826040830152949350505050565b80820281158282048414176110bd576110bd612374565b5f8261241157634e487b7160e01b5f52601260045260245ffd5b500490565b808201808211156110bd576110bd612374565b818103818111156110bd576110bd61237456fea264697066735822122080d592890fbe82a7849015b89d9a2afd775c3c14073e6fbda9dd6d5720e5f4f264736f6c634300081a0033","linkReferences":{}},"methodIdentifiers":{"afterAddLiquidity(address,(address,address,uint24,int24,address),(int24,int24,int256,bytes32),int256,int256,bytes)":"9f063efc","afterDonate(address,(address,address,uint24,int24,address),uint256,uint256,bytes)":"e1b4af69","afterInitialize(address,(address,address,uint24,int24,address),uint160,int24)":"6fe7e6eb","afterRemoveLiquidity(address,(address,address,uint24,int24,address),(int24,int24,int256,bytes32),int256,int256,bytes)":"6c2bbe7e","afterSwap(address,(address,address,uint24,int24,address),(bool,int256,uint160),int256,bytes)":"b47b2fb1","beforeAddLiquidity(address,(address,address,uint24,int24,address),(int24,int24,int256,bytes32),bytes)":"259982e5","beforeDonate(address,(address,address,uint24,int24,address),uint256,uint256,bytes)":"b6a8b0fa","beforeInitialize(address,(address,address,uint24,int24,address),uint160)":"dc98354e","beforeRemoveLiquidity(address,(address,address,uint24,int24,address),(int24,int24,int256,bytes32),bytes)":"21d0ee70","beforeSwap(address,(address,address,uint24,int24,address),(bool,int256,uint160),bytes)":"575e24b4","callbackProxy()":"4cebc7da","createPolicy((address,address,uint24,int24,address),uint256,uint256,uint256,uint256)":"27a741c8","getCurrentPremiumBps(bytes32)":"76c4c9a0","getHookPermissions()":"c4e833ce","getPoliciesForOwner(address)":"60de56a8","getPolicy(uint256)":"2b07fce3","getPremiumForNotional(bytes32,uint256)":"c1924754","getRiskTier(bytes32)":"869662a5","isCoveragePaused(bytes32)":"50a2dc38","nextPolicyId()":"cad0b8db","owner()":"8da5cb5b","pauseCoverage(bytes32)":"a4adc080","poolManager()":"dc4c90d3","renounceOwnership()":"715018a6","resumeCoverage(bytes32)":"7dc1342c","setCallbackProxy(address)":"37559f1e","settleClaim(uint256,uint160)":"2f193e1c","transferOwnership(address)":"f2fde38b","unlockCallback(bytes)":"91dd7346","updateRiskTier(bytes32,uint8)":"c92bb14f","vault()":"fbfa77cf"},"id":52}