{"abi":[{"type":"constructor","inputs":[{"name":"initialOwner","type":"address","internalType":"address"},{"name":"_reserveToken","type":"address","internalType":"contract IERC20"},{"name":"_yieldVault","type":"address","internalType":"contract MockYieldVault"}],"stateMutability":"nonpayable"},{"type":"function","name":"accrueYield","inputs":[{"name":"amount","type":"uint256","internalType":"uint256"}],"outputs":[],"stateMutability":"nonpayable"},{"type":"function","name":"availableForClaims","inputs":[],"outputs":[{"name":"","type":"uint256","internalType":"uint256"}],"stateMutability":"view"},{"type":"function","name":"depositPremium","inputs":[{"name":"token","type":"address","internalType":"address"},{"name":"amount","type":"uint256","internalType":"uint256"}],"outputs":[],"stateMutability":"nonpayable"},{"type":"function","name":"hook","inputs":[],"outputs":[{"name":"","type":"address","internalType":"address"}],"stateMutability":"view"},{"type":"function","name":"liquidReserve","inputs":[],"outputs":[{"name":"","type":"uint256","internalType":"uint256"}],"stateMutability":"view"},{"type":"function","name":"owner","inputs":[],"outputs":[{"name":"","type":"address","internalType":"address"}],"stateMutability":"view"},{"type":"function","name":"payClaim","inputs":[{"name":"recipient","type":"address","internalType":"address"},{"name":"token","type":"address","internalType":"address"},{"name":"amount","type":"uint256","internalType":"uint256"}],"outputs":[],"stateMutability":"nonpayable"},{"type":"function","name":"rebalance","inputs":[],"outputs":[],"stateMutability":"nonpayable"},{"type":"function","name":"renounceOwnership","inputs":[],"outputs":[],"stateMutability":"nonpayable"},{"type":"function","name":"reserveToken","inputs":[],"outputs":[{"name":"","type":"address","internalType":"contract IERC20"}],"stateMutability":"view"},{"type":"function","name":"setHook","inputs":[{"name":"_hook","type":"address","internalType":"address"}],"outputs":[],"stateMutability":"nonpayable"},{"type":"function","name":"solvencyRatioBps","inputs":[],"outputs":[{"name":"","type":"uint256","internalType":"uint256"}],"stateMutability":"view"},{"type":"function","name":"totalAssets","inputs":[],"outputs":[{"name":"","type":"uint256","internalType":"uint256"}],"stateMutability":"view"},{"type":"function","name":"totalClaimsPaid","inputs":[],"outputs":[{"name":"","type":"uint256","internalType":"uint256"}],"stateMutability":"view"},{"type":"function","name":"totalPremiums","inputs":[],"outputs":[{"name":"","type":"uint256","internalType":"uint256"}],"stateMutability":"view"},{"type":"function","name":"totalYieldEarned","inputs":[],"outputs":[{"name":"","type":"uint256","internalType":"uint256"}],"stateMutability":"view"},{"type":"function","name":"transferOwnership","inputs":[{"name":"newOwner","type":"address","internalType":"address"}],"outputs":[],"stateMutability":"nonpayable"},{"type":"function","name":"yieldVault","inputs":[],"outputs":[{"name":"","type":"address","internalType":"contract MockYieldVault"}],"stateMutability":"view"},{"type":"event","name":"ClaimPaid","inputs":[{"name":"to","type":"address","indexed":true,"internalType":"address"},{"name":"amount","type":"uint256","indexed":false,"internalType":"uint256"},{"name":"balanceAfter","type":"uint256","indexed":false,"internalType":"uint256"}],"anonymous":false},{"type":"event","name":"OwnershipTransferred","inputs":[{"name":"previousOwner","type":"address","indexed":true,"internalType":"address"},{"name":"newOwner","type":"address","indexed":true,"internalType":"address"}],"anonymous":false},{"type":"event","name":"PremiumDeposited","inputs":[{"name":"from","type":"address","indexed":true,"internalType":"address"},{"name":"amount","type":"uint256","indexed":false,"internalType":"uint256"},{"name":"newBalance","type":"uint256","indexed":false,"internalType":"uint256"}],"anonymous":false},{"type":"event","name":"VaultHealthUpdated","inputs":[{"name":"solvencyBps","type":"uint256","indexed":false,"internalType":"uint256"},{"name":"totalAssets","type":"uint256","indexed":false,"internalType":"uint256"}],"anonymous":false},{"type":"event","name":"VaultRebalanced","inputs":[{"name":"movedToYield","type":"uint256","indexed":false,"internalType":"uint256"},{"name":"movedToLiquid","type":"uint256","indexed":false,"internalType":"uint256"}],"anonymous":false},{"type":"event","name":"YieldAccrued","inputs":[{"name":"amount","type":"uint256","indexed":false,"internalType":"uint256"},{"name":"newBalance","type":"uint256","indexed":false,"internalType":"uint256"}],"anonymous":false},{"type":"error","name":"InsufficientReserves","inputs":[]},{"type":"error","name":"OnlyHook","inputs":[]},{"type":"error","name":"OwnableInvalidOwner","inputs":[{"name":"owner","type":"address","internalType":"address"}]},{"type":"error","name":"OwnableUnauthorizedAccount","inputs":[{"name":"account","type":"address","internalType":"address"}]},{"type":"error","name":"ReentrancyGuardReentrantCall","inputs":[]},{"type":"error","name":"SafeERC20FailedOperation","inputs":[{"name":"token","type":"address","internalType":"address"}]},{"type":"error","name":"UnsupportedToken","inputs":[]}],"bytecode":{"object":"0x60c060405234801561000f575f80fd5b506040516113ba3803806113ba83398101604081905261002e91610108565b826001600160a01b03811661005c57604051631e4fbdf760e01b81525f600482015260240160405180910390fd5b610065816100a2565b5060017f9b779b17422d0df92223018b32b4d1fa46e071723d6817e2486d003becc55f00556001600160a01b0391821660a0521660805250610152565b5f80546001600160a01b038381166001600160a01b0319831681178455604051919092169283917f8be0079c531659141344cd1fd0a4f28419497f9722a3daafe3b4186f6b6457e09190a35050565b6001600160a01b0381168114610105575f80fd5b50565b5f805f6060848603121561011a575f80fd5b8351610125816100f1565b6020850151909350610136816100f1565b6040850151909250610147816100f1565b809150509250925092565b60805160a0516111d06101ea5f395f818161023c0152818161030d0152818161034201528181610518015281816105d10152818161097601528181610afb0152610c5301525f81816101e60152818161027501528181610364015281816103a5015281816105f301528181610634015281816107bd0152818161086301528181610998015281816109d90152610bd101526111d05ff3fe608060405234801561000f575f80fd5b5060043610610111575f3560e01c80637d7c2a1c1161009e578063a7f8a5e21161006e578063a7f8a5e2146101e1578063cc00967914610208578063de1ff8e414610211578063f2fde38b14610224578063f4325d6714610237575f80fd5b80637d7c2a1c146101965780637f5a7c7b1461019e5780638da5cb5b146101c9578063a408d4ce146101d9575f80fd5b80635675eef0116100e45780635675eef0146101615780635bda1584146101695780635fc91fa1146101725780636532ccf514610185578063715018a61461018e575f80fd5b806301e1d1141461011557806308b0b0c8146101305780633dfd38731461014557806351ab0c2114610158575b5f80fd5b61011d61025e565b6040519081526020015b60405180910390f35b61014361013e366004611059565b6102f8565b005b61014361015336600461108b565b6104b8565b61011d60055481565b61011d6104e2565b61011d60025481565b6101436101803660046110ab565b6104eb565b61011d60035481565b610143610736565b610143610749565b6001546101b1906001600160a01b031681565b6040516001600160a01b039091168152602001610127565b5f546001600160a01b03166101b1565b61011d610a8a565b6101b17f000000000000000000000000000000000000000000000000000000000000000081565b61011d60045481565b61014361021f3660046110d3565b610ac6565b61014361023236600461108b565b610d50565b6101b17f000000000000000000000000000000000000000000000000000000000000000081565b60405163ce96cb7760e01b81523060048201525f907f00000000000000000000000000000000000000000000000000000000000000006001600160a01b03169063ce96cb7790602401602060405180830381865afa1580156102c2573d5f803e3d5ffd5b505050506040513d601f19601f820116820180604052508101906102e6919061110d565b6005546102f39190611138565b905090565b610300610d92565b6103356001600160a01b037f000000000000000000000000000000000000000000000000000000000000000016333084610dbe565b6103896001600160a01b037f0000000000000000000000000000000000000000000000000000000000000000167f000000000000000000000000000000000000000000000000000000000000000083610dfa565b604051636e553f6560e01b8152600481018290523060248201527f00000000000000000000000000000000000000000000000000000000000000006001600160a01b031690636e553f65906044016020604051808303815f875af11580156103f3573d5f803e3d5ffd5b505050506040513d601f19601f82011682018060405250810190610417919061110d565b508060045f8282546104299190611138565b909155505f905061043861025e565b60408051848152602081018390529192507ffe2ebf53456a69d7b70affc98b9021c791a9bce3af6fa5d24dfbc2db0f817b54910160405180910390a17f48db55a758fa1b23eba633cb140be0b14e5f14097323aa88547f9307ae90a14f61049d610a8a565b60408051918252602082018490520160405180910390a15050565b6104c0610d92565b600180546001600160a01b0319166001600160a01b0392909216919091179055565b5f6102f361025e565b6001546001600160a01b0316331461051657604051635a91834f60e01b815260040160405180910390fd5b7f00000000000000000000000000000000000000000000000000000000000000006001600160a01b0316826001600160a01b0316146105685760405163350b944160e11b815260040160405180910390fd5b8060025f8282546105799190611138565b909155505f905061271061058f6107d084611151565b6105999190611168565b90505f6105a68284611187565b90508160055f8282546105b99190611138565b909155505080156106a8576106186001600160a01b037f0000000000000000000000000000000000000000000000000000000000000000167f000000000000000000000000000000000000000000000000000000000000000083610dfa565b604051636e553f6560e01b8152600481018290523060248201527f00000000000000000000000000000000000000000000000000000000000000006001600160a01b031690636e553f65906044016020604051808303815f875af1158015610682573d5f803e3d5ffd5b505050506040513d601f19601f820116820180604052508101906106a6919061110d565b505b5f6106b161025e565b604080518681526020810183905291925033917ffbed3c3178a95cd23bfe6a5e58072ba6839be13abe9c47ca0d24f2ca2c000ea6910160405180910390a27f48db55a758fa1b23eba633cb140be0b14e5f14097323aa88547f9307ae90a14f610718610a8a565b60408051918252602082018490520160405180910390a15050505050565b61073e610d92565b6107475f610e74565b565b610751610d92565b5f61075a61025e565b9050805f036107665750565b5f6127106107766107d084611151565b6107809190611168565b905080600554101561092d575f6005548261079b9190611187565b60405163ce96cb7760e01b81523060048201529091505f906001600160a01b037f0000000000000000000000000000000000000000000000000000000000000000169063ce96cb7790602401602060405180830381865afa158015610802573d5f803e3d5ffd5b505050506040513d601f19601f82011682018060405250810190610826919061110d565b90505f8183106108365781610838565b825b9050801561092657604051632d182be560e21b815260048101829052306024820181905260448201527f00000000000000000000000000000000000000000000000000000000000000006001600160a01b03169063b460af94906064016020604051808303815f875af11580156108b1573d5f803e3d5ffd5b505050506040513d601f19601f820116820180604052508101906108d5919061110d565b508060055f8282546108e79190611138565b9091555050604080515f8152602081018390527f724695c22c058afdfe5869880a8b959564224d0733b214ee1942d33f4420faaa910160405180910390a15b5050505050565b610938816002611151565b6005541115610a86575f816005546109509190611187565b90508060055f8282546109639190611187565b909155506109bd90506001600160a01b037f0000000000000000000000000000000000000000000000000000000000000000167f000000000000000000000000000000000000000000000000000000000000000083610dfa565b604051636e553f6560e01b8152600481018290523060248201527f00000000000000000000000000000000000000000000000000000000000000006001600160a01b031690636e553f65906044016020604051808303815f875af1158015610a27573d5f803e3d5ffd5b505050506040513d601f19601f82011682018060405250810190610a4b919061110d565b50604080518281525f60208201527f724695c22c058afdfe5869880a8b959564224d0733b214ee1942d33f4420faaa910160405180910390a1505b5050565b5f6002545f03610a9b575061271090565b5f610aa461025e565b600254909150610ab661271083611151565b610ac09190611168565b91505090565b6001546001600160a01b03163314610af157604051635a91834f60e01b815260040160405180910390fd5b610af9610ec3565b7f00000000000000000000000000000000000000000000000000000000000000006001600160a01b0316826001600160a01b031614610b4b5760405163350b944160e11b815260040160405180910390fd5b610b536104e2565b811115610b735760405163128bd24d60e31b815260040160405180910390fd5b6005548111610b98578060055f828254610b8d9190611187565b90915550610c469050565b5f60055482610ba79190611187565b5f600555604051632d182be560e21b815260048101829052306024820181905260448201529091507f00000000000000000000000000000000000000000000000000000000000000006001600160a01b03169063b460af94906064016020604051808303815f875af1158015610c1f573d5f803e3d5ffd5b505050506040513d601f19601f82011682018060405250810190610c43919061110d565b50505b610c7a6001600160a01b037f0000000000000000000000000000000000000000000000000000000000000000168483610ef1565b8060035f828254610c8b9190611138565b909155505f9050610c9a61025e565b60408051848152602081018390529192506001600160a01b038616917f2426c2fe4ecc089361233f90d45067fd7ba45a260b464b8e920ad9b78969161a910160405180910390a27f48db55a758fa1b23eba633cb140be0b14e5f14097323aa88547f9307ae90a14f610d0a610a8a565b60408051918252602082018490520160405180910390a150610d4b60017f9b779b17422d0df92223018b32b4d1fa46e071723d6817e2486d003becc55f0055565b505050565b610d58610d92565b6001600160a01b038116610d8657604051631e4fbdf760e01b81525f60048201526024015b60405180910390fd5b610d8f81610e74565b50565b5f546001600160a01b031633146107475760405163118cdaa760e01b8152336004820152602401610d7d565b610dcc848484846001610efe565b610df457604051635274afe760e01b81526001600160a01b0385166004820152602401610d7d565b50505050565b610e068383835f610f6b565b610d4b57610e1783835f6001610f6b565b610e3f57604051635274afe760e01b81526001600160a01b0384166004820152602401610d7d565b610e4c8383836001610f6b565b610d4b57604051635274afe760e01b81526001600160a01b0384166004820152602401610d7d565b5f80546001600160a01b038381166001600160a01b0319831681178455604051919092169283917f8be0079c531659141344cd1fd0a4f28419497f9722a3daafe3b4186f6b6457e09190a35050565b610ecb610fcd565b60027f9b779b17422d0df92223018b32b4d1fa46e071723d6817e2486d003becc55f0055565b610e4c838383600161100f565b6040516323b872dd60e01b5f8181526001600160a01b038781166004528616602452604485905291602083606481808c5af1925060015f51148316610f5a578383151615610f4e573d5f823e3d81fd5b5f883b113d1516831692505b604052505f60605295945050505050565b60405163095ea7b360e01b5f8181526001600160a01b038616600452602485905291602083604481808b5af1925060015f51148316610fc1578383151615610fb5573d5f823e3d81fd5b5f873b113d1516831692505b60405250949350505050565b7f9b779b17422d0df92223018b32b4d1fa46e071723d6817e2486d003becc55f005460020361074757604051633ee5aeb560e01b815260040160405180910390fd5b60405163a9059cbb60e01b5f8181526001600160a01b038616600452602485905291602083604481808b5af1925060015f51148316610fc1578383151615610fb5573d5f823e3d81fd5b5f60208284031215611069575f80fd5b5035919050565b80356001600160a01b0381168114611086575f80fd5b919050565b5f6020828403121561109b575f80fd5b6110a482611070565b9392505050565b5f80604083850312156110bc575f80fd5b6110c583611070565b946020939093013593505050565b5f805f606084860312156110e5575f80fd5b6110ee84611070565b92506110fc60208501611070565b929592945050506040919091013590565b5f6020828403121561111d575f80fd5b5051919050565b634e487b7160e01b5f52601160045260245ffd5b8082018082111561114b5761114b611124565b92915050565b808202811582820484141761114b5761114b611124565b5f8261118257634e487b7160e01b5f52601260045260245ffd5b500490565b8181038181111561114b5761114b61112456fea26469706673582212209151bfb6bd49db88418c333afdbec30b0d4173c5333efb9ca8ce8ad385e0900564736f6c634300081a0033","linkReferences":{}},"methodIdentifiers":{"accrueYield(uint256)":"08b0b0c8","availableForClaims()":"5675eef0","depositPremium(address,uint256)":"5fc91fa1","hook()":"7f5a7c7b","liquidReserve()":"51ab0c21","owner()":"8da5cb5b","payClaim(address,address,uint256)":"de1ff8e4","rebalance()":"7d7c2a1c","renounceOwnership()":"715018a6","reserveToken()":"f4325d67","setHook(address)":"3dfd3873","solvencyRatioBps()":"a408d4ce","totalAssets()":"01e1d114","totalClaimsPaid()":"6532ccf5","totalPremiums()":"5bda1584","totalYieldEarned()":"cc009679","transferOwnership(address)":"f2fde38b","yieldVault()":"a7f8a5e2"},"id":59}