{"abi":[{"type":"constructor","inputs":[{"name":"asset_","type":"address","internalType":"contract IERC20"},{"name":"initialOwner","type":"address","internalType":"address"}],"stateMutability":"nonpayable"},{"type":"function","name":"accrueYield","inputs":[{"name":"amount","type":"uint256","internalType":"uint256"}],"outputs":[],"stateMutability":"nonpayable"},{"type":"function","name":"allowance","inputs":[{"name":"owner","type":"address","internalType":"address"},{"name":"spender","type":"address","internalType":"address"}],"outputs":[{"name":"","type":"uint256","internalType":"uint256"}],"stateMutability":"view"},{"type":"function","name":"approve","inputs":[{"name":"spender","type":"address","internalType":"address"},{"name":"value","type":"uint256","internalType":"uint256"}],"outputs":[{"name":"","type":"bool","internalType":"bool"}],"stateMutability":"nonpayable"},{"type":"function","name":"asset","inputs":[],"outputs":[{"name":"","type":"address","internalType":"address"}],"stateMutability":"view"},{"type":"function","name":"balanceOf","inputs":[{"name":"account","type":"address","internalType":"address"}],"outputs":[{"name":"","type":"uint256","internalType":"uint256"}],"stateMutability":"view"},{"type":"function","name":"convertToAssets","inputs":[{"name":"shares","type":"uint256","internalType":"uint256"}],"outputs":[{"name":"","type":"uint256","internalType":"uint256"}],"stateMutability":"view"},{"type":"function","name":"convertToShares","inputs":[{"name":"assets","type":"uint256","internalType":"uint256"}],"outputs":[{"name":"","type":"uint256","internalType":"uint256"}],"stateMutability":"view"},{"type":"function","name":"decimals","inputs":[],"outputs":[{"name":"","type":"uint8","internalType":"uint8"}],"stateMutability":"view"},{"type":"function","name":"deposit","inputs":[{"name":"assets","type":"uint256","internalType":"uint256"},{"name":"receiver","type":"address","internalType":"address"}],"outputs":[{"name":"shares","type":"uint256","internalType":"uint256"}],"stateMutability":"nonpayable"},{"type":"function","name":"maxDeposit","inputs":[{"name":"","type":"address","internalType":"address"}],"outputs":[{"name":"","type":"uint256","internalType":"uint256"}],"stateMutability":"view"},{"type":"function","name":"maxMint","inputs":[{"name":"","type":"address","internalType":"address"}],"outputs":[{"name":"","type":"uint256","internalType":"uint256"}],"stateMutability":"view"},{"type":"function","name":"maxRedeem","inputs":[{"name":"owner","type":"address","internalType":"address"}],"outputs":[{"name":"","type":"uint256","internalType":"uint256"}],"stateMutability":"view"},{"type":"function","name":"maxWithdraw","inputs":[{"name":"owner","type":"address","internalType":"address"}],"outputs":[{"name":"","type":"uint256","internalType":"uint256"}],"stateMutability":"view"},{"type":"function","name":"mint","inputs":[{"name":"shares","type":"uint256","internalType":"uint256"},{"name":"receiver","type":"address","internalType":"address"}],"outputs":[{"name":"","type":"uint256","internalType":"uint256"}],"stateMutability":"nonpayable"},{"type":"function","name":"name","inputs":[],"outputs":[{"name":"","type":"string","internalType":"string"}],"stateMutability":"view"},{"type":"function","name":"owner","inputs":[],"outputs":[{"name":"","type":"address","internalType":"address"}],"stateMutability":"view"},{"type":"function","name":"previewDeposit","inputs":[{"name":"assets","type":"uint256","internalType":"uint256"}],"outputs":[{"name":"","type":"uint256","internalType":"uint256"}],"stateMutability":"view"},{"type":"function","name":"previewMint","inputs":[{"name":"shares","type":"uint256","internalType":"uint256"}],"outputs":[{"name":"","type":"uint256","internalType":"uint256"}],"stateMutability":"view"},{"type":"function","name":"previewRedeem","inputs":[{"name":"shares","type":"uint256","internalType":"uint256"}],"outputs":[{"name":"","type":"uint256","internalType":"uint256"}],"stateMutability":"view"},{"type":"function","name":"previewWithdraw","inputs":[{"name":"assets","type":"uint256","internalType":"uint256"}],"outputs":[{"name":"","type":"uint256","internalType":"uint256"}],"stateMutability":"view"},{"type":"function","name":"redeem","inputs":[{"name":"shares","type":"uint256","internalType":"uint256"},{"name":"receiver","type":"address","internalType":"address"},{"name":"owner","type":"address","internalType":"address"}],"outputs":[{"name":"","type":"uint256","internalType":"uint256"}],"stateMutability":"nonpayable"},{"type":"function","name":"renounceOwnership","inputs":[],"outputs":[],"stateMutability":"nonpayable"},{"type":"function","name":"symbol","inputs":[],"outputs":[{"name":"","type":"string","internalType":"string"}],"stateMutability":"view"},{"type":"function","name":"totalAssets","inputs":[],"outputs":[{"name":"","type":"uint256","internalType":"uint256"}],"stateMutability":"view"},{"type":"function","name":"totalSupply","inputs":[],"outputs":[{"name":"","type":"uint256","internalType":"uint256"}],"stateMutability":"view"},{"type":"function","name":"transfer","inputs":[{"name":"to","type":"address","internalType":"address"},{"name":"value","type":"uint256","internalType":"uint256"}],"outputs":[{"name":"","type":"bool","internalType":"bool"}],"stateMutability":"nonpayable"},{"type":"function","name":"transferFrom","inputs":[{"name":"from","type":"address","internalType":"address"},{"name":"to","type":"address","internalType":"address"},{"name":"value","type":"uint256","internalType":"uint256"}],"outputs":[{"name":"","type":"bool","internalType":"bool"}],"stateMutability":"nonpayable"},{"type":"function","name":"transferOwnership","inputs":[{"name":"newOwner","type":"address","internalType":"address"}],"outputs":[],"stateMutability":"nonpayable"},{"type":"function","name":"withdraw","inputs":[{"name":"assets","type":"uint256","internalType":"uint256"},{"name":"receiver","type":"address","internalType":"address"},{"name":"owner_","type":"address","internalType":"address"}],"outputs":[{"name":"shares","type":"uint256","internalType":"uint256"}],"stateMutability":"nonpayable"},{"type":"event","name":"Approval","inputs":[{"name":"owner","type":"address","indexed":true,"internalType":"address"},{"name":"spender","type":"address","indexed":true,"internalType":"address"},{"name":"value","type":"uint256","indexed":false,"internalType":"uint256"}],"anonymous":false},{"type":"event","name":"Deposit","inputs":[{"name":"sender","type":"address","indexed":true,"internalType":"address"},{"name":"owner","type":"address","indexed":true,"internalType":"address"},{"name":"assets","type":"uint256","indexed":false,"internalType":"uint256"},{"name":"shares","type":"uint256","indexed":false,"internalType":"uint256"}],"anonymous":false},{"type":"event","name":"OwnershipTransferred","inputs":[{"name":"previousOwner","type":"address","indexed":true,"internalType":"address"},{"name":"newOwner","type":"address","indexed":true,"internalType":"address"}],"anonymous":false},{"type":"event","name":"Transfer","inputs":[{"name":"from","type":"address","indexed":true,"internalType":"address"},{"name":"to","type":"address","indexed":true,"internalType":"address"},{"name":"value","type":"uint256","indexed":false,"internalType":"uint256"}],"anonymous":false},{"type":"event","name":"Withdraw","inputs":[{"name":"sender","type":"address","indexed":true,"internalType":"address"},{"name":"receiver","type":"address","indexed":true,"internalType":"address"},{"name":"owner","type":"address","indexed":true,"internalType":"address"},{"name":"assets","type":"uint256","indexed":false,"internalType":"uint256"},{"name":"shares","type":"uint256","indexed":false,"internalType":"uint256"}],"anonymous":false},{"type":"event","name":"YieldAccrued","inputs":[{"name":"amount","type":"uint256","indexed":false,"internalType":"uint256"},{"name":"newTotalAssets","type":"uint256","indexed":false,"internalType":"uint256"}],"anonymous":false},{"type":"error","name":"ERC20InsufficientAllowance","inputs":[{"name":"spender","type":"address","internalType":"address"},{"name":"allowance","type":"uint256","internalType":"uint256"},{"name":"needed","type":"uint256","internalType":"uint256"}]},{"type":"error","name":"ERC20InsufficientBalance","inputs":[{"name":"sender","type":"address","internalType":"address"},{"name":"balance","type":"uint256","internalType":"uint256"},{"name":"needed","type":"uint256","internalType":"uint256"}]},{"type":"error","name":"ERC20InvalidApprover","inputs":[{"name":"approver","type":"address","internalType":"address"}]},{"type":"error","name":"ERC20InvalidReceiver","inputs":[{"name":"receiver","type":"address","internalType":"address"}]},{"type":"error","name":"ERC20InvalidSender","inputs":[{"name":"sender","type":"address","internalType":"address"}]},{"type":"error","name":"ERC20InvalidSpender","inputs":[{"name":"spender","type":"address","internalType":"address"}]},{"type":"error","name":"ERC4626ExceededMaxDeposit","inputs":[{"name":"receiver","type":"address","internalType":"address"},{"name":"assets","type":"uint256","internalType":"uint256"},{"name":"max","type":"uint256","internalType":"uint256"}]},{"type":"error","name":"ERC4626ExceededMaxMint","inputs":[{"name":"receiver","type":"address","internalType":"address"},{"name":"shares","type":"uint256","internalType":"uint256"},{"name":"max","type":"uint256","internalType":"uint256"}]},{"type":"error","name":"ERC4626ExceededMaxRedeem","inputs":[{"name":"owner","type":"address","internalType":"address"},{"name":"shares","type":"uint256","internalType":"uint256"},{"name":"max","type":"uint256","internalType":"uint256"}]},{"type":"error","name":"ERC4626ExceededMaxWithdraw","inputs":[{"name":"owner","type":"address","internalType":"address"},{"name":"assets","type":"uint256","internalType":"uint256"},{"name":"max","type":"uint256","internalType":"uint256"}]},{"type":"error","name":"OwnableInvalidOwner","inputs":[{"name":"owner","type":"address","internalType":"address"}]},{"type":"error","name":"OwnableUnauthorizedAccount","inputs":[{"name":"account","type":"address","internalType":"address"}]},{"type":"error","name":"SafeERC20FailedOperation","inputs":[{"name":"token","type":"address","internalType":"address"}]}],"bytecode":{"object":"0x60c060405234801561000f575f80fd5b506040516117f83803806117f883398101604081905261002e9161022b565b80826040518060400160405280601681526020017f496e64656d6e696669205969656c6420536861726573000000000000000000008152506040518060400160405280600481526020016334b23cab60e11b815250816003908161009291906102fb565b50600461009f82826102fb565b5050505f806100b38361011160201b60201c565b91509150816100c35760126100c5565b805b60ff1660a05250506001600160a01b03908116608052811661010057604051631e4fbdf760e01b81525f600482015260240160405180910390fd5b610109816101a2565b5050506103b5565b5f808061011d60405190565b6040805160048152602481019091526020810180516001600160e01b0390811663313ce56760e01b179091529192505f91829161015d918891906101f316565b50909250905061016c83604052565b81801561017a575060203d10155b8015610187575060ff8111155b610192575f80610196565b6001815b94509450505050915091565b600580546001600160a01b038381166001600160a01b0319831681179093556040519116919082907f8be0079c531659141344cd1fd0a4f28419497f9722a3daafe3b4186f6b6457e0905f90a35050565b5f805f60405f855160208701885afa92505f51915060205190509250925092565b6001600160a01b0381168114610228575f80fd5b50565b5f806040838503121561023c575f80fd5b825161024781610214565b602084015190925061025881610214565b809150509250929050565b634e487b7160e01b5f52604160045260245ffd5b600181811c9082168061028b57607f821691505b6020821081036102a957634e487b7160e01b5f52602260045260245ffd5b50919050565b601f8211156102f657805f5260205f20601f840160051c810160208510156102d45750805b601f840160051c820191505b818110156102f3575f81556001016102e0565b50505b505050565b81516001600160401b0381111561031457610314610263565b610328816103228454610277565b846102af565b6020601f82116001811461035a575f83156103435750848201515b5f19600385901b1c1916600184901b1784556102f3565b5f84815260208120601f198516915b828110156103895787850151825560209485019460019092019101610369565b50848210156103a657868401515f19600387901b60f8161c191681555b50505050600190811b01905550565b60805160a0516113ff6103f95f395f61059d01525f818161028b015281816104c7015281816105cf0152818161072e01528181610ece0152610f5c01526113ff5ff3fe608060405234801561000f575f80fd5b50600436106101c6575f3560e01c8063715018a6116100fe578063ba0876521161009e578063d905777e1161006e578063d905777e146103b8578063dd62ed3e146103cb578063ef8b30f714610392578063f2fde38b14610403575f80fd5b8063ba0876521461037f578063c63d75b6146102c3578063c6e6f59214610392578063ce96cb77146103a5575f80fd5b806395d89b41116100d957806395d89b411461033e578063a9059cbb14610346578063b3d7f6b914610359578063b460af941461036c575f80fd5b8063715018a6146103125780638da5cb5b1461031a57806394bf804d1461032b575f80fd5b806323b872dd11610169578063402d267d11610144578063402d267d146102c35780634cdad506146101f65780636e553f65146102d757806370a08231146102ea575f80fd5b806323b872dd1461025c578063313ce5671461026f57806338d52e0f14610289575f80fd5b806308b0b0c8116101a457806308b0b0c814610209578063095ea7b31461021e5780630a28a4771461024157806318160ddd14610254575f80fd5b806301e1d114146101ca57806306fdde03146101e157806307a2d13a146101f6575b5f80fd5b6006545b6040519081526020015b60405180910390f35b6101e9610416565b6040516101d8919061108b565b6101ce6102043660046110c0565b6104a6565b61021c6102173660046110c0565b6104b7565b005b61023161022c3660046110f2565b61054e565b60405190151581526020016101d8565b6101ce61024f3660046110c0565b610565565b6002546101ce565b61023161026a36600461111a565b610571565b610277610596565b60405160ff90911681526020016101d8565b7f00000000000000000000000000000000000000000000000000000000000000005b6040516001600160a01b0390911681526020016101d8565b6101ce6102d1366004611154565b505f1990565b6101ce6102e536600461116d565b6105c6565b6101ce6102f8366004611154565b6001600160a01b03165f9081526020819052604090205490565b61021c61066b565b6005546001600160a01b03166102ab565b6101ce61033936600461116d565b61067e565b6101e96106af565b6102316103543660046110f2565b6106be565b6101ce6103673660046110c0565b6106cb565b6101ce61037a366004611197565b6106d7565b6101ce61038d366004611197565b6107a7565b6101ce6103a03660046110c0565b610810565b6101ce6103b3366004611154565b61081b565b6101ce6103c6366004611154565b610824565b6101ce6103d93660046111d0565b6001600160a01b039182165f90815260016020908152604080832093909416825291909152205490565b61021c610411366004611154565b610841565b606060038054610425906111f8565b80601f0160208091040260200160405190810160405280929190818152602001828054610451906111f8565b801561049c5780601f106104735761010080835404028352916020019161049c565b820191905f5260205f20905b81548152906001019060200180831161047f57829003601f168201915b5050505050905090565b5f6104b1825f61087e565b92915050565b6104bf6108b7565b6104f83330837f00000000000000000000000000000000000000000000000000000000000000005b6001600160a01b03169291906108e4565b8060065f8282546105099190611244565b90915550506006546040805183815260208101929092527ffe2ebf53456a69d7b70affc98b9021c791a9bce3af6fa5d24dfbc2db0f817b54910160405180910390a150565b5f3361055b818585610920565b5060019392505050565b5f6104b1826001610932565b5f3361057e85828561095c565b6105898585856109d2565b60019150505b9392505050565b5f6105c1817f0000000000000000000000000000000000000000000000000000000000000000611257565b905090565b5f6105f33330857f00000000000000000000000000000000000000000000000000000000000000006104e7565b6105fd835f610932565b90506106098282610a2f565b8260065f82825461061a9190611244565b909155505060408051848152602081018390526001600160a01b0384169133917fdcbc1c05240f31ff3ad067ef1ee35ce4997762752e3a095284754544f4c709d7910160405180910390a392915050565b6106736108b7565b61067c5f610a67565b565b5f5f1961068f565b60405180910390fd5b5f610699856106cb565b90506106a733858388610ab8565b949350505050565b606060048054610425906111f8565b5f3361055b8185856109d2565b5f6104b182600161087e565b5f6106e3846001610932565b9050336001600160a01b038316146107005761070082338361095c565b61070a8282610b28565b8360065f82825461071b9190611270565b9091555061075590506001600160a01b037f0000000000000000000000000000000000000000000000000000000000000000168486610b5c565b60408051858152602081018390526001600160a01b03808516929086169133917ffbde797d201c681b91056529119e0b02407c7bb96a4a2c75c01fc9667232c8db910160405180910390a49392505050565b5f806107b283610824565b9050808511156107ee57604051632e52afbb60e21b81526001600160a01b03841660048201526024810186905260448101829052606401610686565b5f6107f8866104a6565b9050610807338686848a610b91565b95945050505050565b5f6104b1825f610932565b5f6104b1610204835b6001600160a01b0381165f908152602081905260408120546104b1565b6108496108b7565b6001600160a01b03811661087257604051631e4fbdf760e01b81525f6004820152602401610686565b61087b81610a67565b50565b5f61058f61088b60065490565b610896906001611244565b6108a15f600a611366565b6002546108ae9190611244565b85919085610c30565b6005546001600160a01b0316331461067c5760405163118cdaa760e01b8152336004820152602401610686565b6108f2848484846001610c72565b61091a57604051635274afe760e01b81526001600160a01b0385166004820152602401610686565b50505050565b61092d8383836001610cdf565b505050565b5f61058f61094182600a611366565b60025461094e9190611244565b6006546108ae906001611244565b6001600160a01b038381165f908152600160209081526040808320938616835292905220545f1981101561091a57818110156109c457604051637dc7a0d960e11b81526001600160a01b03841660048201526024810182905260448101839052606401610686565b61091a84848484035f610cdf565b6001600160a01b0383166109fb57604051634b637e8f60e11b81525f6004820152602401610686565b6001600160a01b038216610a245760405163ec442f0560e01b81525f6004820152602401610686565b61092d838383610da3565b6001600160a01b038216610a585760405163ec442f0560e01b81525f6004820152602401610686565b610a635f8383610da3565b5050565b600580546001600160a01b038381166001600160a01b0319831681179093556040519116919082907f8be0079c531659141344cd1fd0a4f28419497f9722a3daafe3b4186f6b6457e0905f90a35050565b610ac28483610ec9565b610acc8382610a2f565b826001600160a01b0316846001600160a01b03167fdcbc1c05240f31ff3ad067ef1ee35ce4997762752e3a095284754544f4c709d78484604051610b1a929190918252602082015260400190565b60405180910390a350505050565b6001600160a01b038216610b5157604051634b637e8f60e11b81525f6004820152602401610686565b610a63825f83610da3565b610b698383836001610ef5565b61092d57604051635274afe760e01b81526001600160a01b0384166004820152602401610686565b826001600160a01b0316856001600160a01b031614610bb557610bb583868361095c565b610bbf8382610b28565b610bc98483610f57565b826001600160a01b0316846001600160a01b0316866001600160a01b03167ffbde797d201c681b91056529119e0b02407c7bb96a4a2c75c01fc9667232c8db8585604051610c21929190918252602082015260400190565b60405180910390a45050505050565b5f610c5d610c3d83610f82565b8015610c5857505f8480610c5357610c53611374565b868809115b151590565b610c68868686610fae565b6108079190611244565b6040516323b872dd60e01b5f8181526001600160a01b038781166004528616602452604485905291602083606481808c5af1925060015f51148316610cce578383151615610cc2573d5f823e3d81fd5b5f883b113d1516831692505b604052505f60605295945050505050565b6001600160a01b038416610d085760405163e602df0560e01b81525f6004820152602401610686565b6001600160a01b038316610d3157604051634a1406b160e11b81525f6004820152602401610686565b6001600160a01b038085165f908152600160209081526040808320938716835292905220829055801561091a57826001600160a01b0316846001600160a01b03167f8c5be1e5ebec7d5bd14f71427d1e84f3dd0314c0f7b2291e5b200ac8c7c3b92584604051610b1a91815260200190565b6001600160a01b038316610dcd578060025f828254610dc29190611244565b90915550610e3d9050565b6001600160a01b0383165f9081526020819052604090205481811015610e1f5760405163391434e360e21b81526001600160a01b03851660048201526024810182905260448101839052606401610686565b6001600160a01b0384165f9081526020819052604090209082900390555b6001600160a01b038216610e5957600280548290039055610e77565b6001600160a01b0382165f9081526020819052604090208054820190555b816001600160a01b0316836001600160a01b03167fddf252ad1be2c89b69c2b068fc378daa952ba7f163c4a11628f55a4df523b3ef83604051610ebc91815260200190565b60405180910390a3505050565b610a637f00000000000000000000000000000000000000000000000000000000000000008330846108e4565b60405163a9059cbb60e01b5f8181526001600160a01b038616600452602485905291602083604481808b5af1925060015f51148316610f4b578383151615610f3f573d5f823e3d81fd5b5f873b113d1516831692505b60405250949350505050565b610a637f00000000000000000000000000000000000000000000000000000000000000008383610b5c565b5f6002826003811115610f9757610f97611388565b610fa1919061139c565b60ff166001149050919050565b5f805f610fbb868661105e565b91509150815f03610fdf57838181610fd557610fd5611374565b049250505061058f565b818411610ff657610ff6600385150260111861107a565b5f848688095f868103871696879004966002600389028118808a02820302808a02820302808a02820302808a02820302808a02820302808a02909103029181900381900460010185841190960395909502919093039390930492909217029150509392505050565b5f805f1983850993909202808410938190039390930393915050565b634e487b715f52806020526024601cfd5b602081525f82518060208401528060208501604085015e5f604082850101526040601f19601f83011684010191505092915050565b5f602082840312156110d0575f80fd5b5035919050565b80356001600160a01b03811681146110ed575f80fd5b919050565b5f8060408385031215611103575f80fd5b61110c836110d7565b946020939093013593505050565b5f805f6060848603121561112c575f80fd5b611135846110d7565b9250611143602085016110d7565b929592945050506040919091013590565b5f60208284031215611164575f80fd5b61058f826110d7565b5f806040838503121561117e575f80fd5b8235915061118e602084016110d7565b90509250929050565b5f805f606084860312156111a9575f80fd5b833592506111b9602085016110d7565b91506111c7604085016110d7565b90509250925092565b5f80604083850312156111e1575f80fd5b6111ea836110d7565b915061118e602084016110d7565b600181811c9082168061120c57607f821691505b60208210810361122a57634e487b7160e01b5f52602260045260245ffd5b50919050565b634e487b7160e01b5f52601160045260245ffd5b808201808211156104b1576104b1611230565b60ff81811683821601908111156104b1576104b1611230565b818103818111156104b1576104b1611230565b6001815b60018411156112be578085048111156112a2576112a2611230565b60018416156112b057908102905b60019390931c928002611287565b935093915050565b5f826112d4575060016104b1565b816112e057505f6104b1565b81600181146112f657600281146113005761131c565b60019150506104b1565b60ff84111561131157611311611230565b50506001821b6104b1565b5060208310610133831016604e8410600b841016171561133f575081810a6104b1565b61134b5f198484611283565b805f190482111561135e5761135e611230565b029392505050565b5f61058f60ff8416836112c6565b634e487b7160e01b5f52601260045260245ffd5b634e487b7160e01b5f52602160045260245ffd5b5f60ff8316806113ba57634e487b7160e01b5f52601260045260245ffd5b8060ff8416069150509291505056fea2646970667358221220fb806750ac30470e64d5dbe9f425af9efbbee97ab966b7b5b20d90563e8ae14564736f6c634300081a0033","linkReferences":{}},"methodIdentifiers":{"accrueYield(uint256)":"08b0b0c8","allowance(address,address)":"dd62ed3e","approve(address,uint256)":"095ea7b3","asset()":"38d52e0f","balanceOf(address)":"70a08231","convertToAssets(uint256)":"07a2d13a","convertToShares(uint256)":"c6e6f592","decimals()":"313ce567","deposit(uint256,address)":"6e553f65","maxDeposit(address)":"402d267d","maxMint(address)":"c63d75b6","maxRedeem(address)":"d905777e","maxWithdraw(address)":"ce96cb77","mint(uint256,address)":"94bf804d","name()":"06fdde03","owner()":"8da5cb5b","previewDeposit(uint256)":"ef8b30f7","previewMint(uint256)":"b3d7f6b9","previewRedeem(uint256)":"4cdad506","previewWithdraw(uint256)":"0a28a477","redeem(uint256,address,address)":"ba087652","renounceOwnership()":"715018a6","symbol()":"95d89b41","totalAssets()":"01e1d114","totalSupply()":"18160ddd","transfer(address,uint256)":"a9059cbb","transferFrom(address,address,uint256)":"23b872dd","transferOwnership(address)":"f2fde38b","withdraw(uint256,address,address)":"b460af94"},"id":120}